:020000040800F2
:10000000F00A0020D5010008D9010008DB01000832
:10001000DD010008DF010008E10100080000000028
:10002000000000000000000000000000E3010008E4
:10003000E501000800000000E7010008E9010008F0
:10004000EB010008EB010008EB010008EB010008E0
:10005000EB010008EB010008EB010008EB010008D0
:10006000EB010008EB010008EB010008EB010008C0
:10007000EB010008EB010008EB010008EB010008B0
:10008000EB010008EB010008EB010008EB010008A0
:10009000EB010008EB010008EB010008EB01000890
:1000A000EB010008F1200008EB010008EB0100085B
:1000B0001D130008EB010008EB010008EB0100082C
:1000C000EB010008EB010008EB010008EB01000860
:1000D000EB010008E3060008EB010008EB01000853
:1000E000EB010008EB010008EB01000800F002F84A
:1000F00000F05AF80AA090E8000C82448344AAF168
:100100000107DA4501D100F04FF8AFF2090EBAE865
:100110000F0013F0010F18BFFB1A43F0010318473B
:10012000C04A0000E04A00000A444FF0000C10F8FA
:10013000013B13F0070408BF10F8014B1D1108BF65
:1001400010F8015B641E05D010F8016B641E01F805
:10015000016BF9D113F0080F1EBF10F8014BAD1C55
:100160000C1B09D16D1E58BF01F801CBFAD505E073
:1001700014F8016B01F8016B6D1EF9D59142D6D3CD
:10018000704700000023002400250026103A28BFF5
:1001900078C1FBD8520728BF30C148BF0B607047F9
:1001A0001FB51FBD10B510BD02F018FE1146FFF7B8
:1001B000F7FF00F02BF802F036FE03B4FFF7F2FF72
:1001C00003BC00F009FA000030BF72B662B680F3DB
:1001D0000888704708480047FEE7FEE7FEE7FEE7AD
:1001E000FEE7FEE7FEE7FEE7FEE7FEE70348044919
:1001F000044A054B70470000ED000008F0040020A1
:10020000F00A0020F0060020F0060020092000F08F
:100210008AF9482000F02AF84FF41651482000F0DF
:10022000F5F9022000F06AF9012000F067F90021D9
:1002300041F61F4000F029FF00F0D6FC002002F03C
:10024000F2F900F065FD00BF01F03EFA0028FBD195
:1002500000F0C8FA00F09AFF00F0F7FF41F61F41E6
:100260001D2000F0BFFE00BFFEE700004FF0E021C0
:10027000096921F004014FF0E0221161C21700EB7F
:100280005272C2F3C702234B1A701946097801EB68
:100290004102C2EBC1114FF6FF7202EAC1011E4AD0
:1002A0001180704701461B4A12784A434FF0E02301
:1002B0005A6100229A6101221A6100BF4FF0E022C8
:1002C000106900F001021AB100F48032002AF5D062
:1002D00000224FF0E0231A619A61704701460E4AEE
:1002E00012884A434FF0E0235A6100229A610122AA
:1002F0001A6100BF4FF0E022106900F001021AB14C
:1003000000F48032002AF5D000224FF0E0231A6179
:100310009A6170470000002002000020A34A0A40B2
:100320000243A34B1A6070470146072323EA0102E8
:1003300012029F4B1B1D18684FF6FF0318409D4B80
:10034000184310439A4B1B1D186070472DE9F0416C
:100350000746884614461D462846FFF7E5FFC5F1C7
:10036000040007FA00F60F20284100EA08000643BF
:1003700006F00F06E21704EBD2625211920002F16E
:10038000E022D2F800212146E31704EBD3635B118E
:10039000A4EB431C012303FA0CF31A432046E31792
:1003A00004EBD3635B119B0003F1E023C3F800214E
:1003B0008148005D40EA06107F490855BDE8F0819C
:1003C00070B504460B46CE1701EB9676C6F3870050
:1003D000CE1701EB9676B610A1EB8606B606350E63
:1003E000764B9B6943F00103744EB3614FEAB63319
:1003F00053F820300F26AE40B343714E46F82030FC
:10040000334653F8203004FA05F61E436C4B43F88C
:1004100020606C4B1B6801268E403343694E33606D
:1004200002F0010343B1674B0C331B6801268E4079
:100430003343644E0C36336002F0020343B1614B28
:1004400008331E6801238B401E435E4B08331E6039
:1004500070BD00B5002059490861C860142048618A
:1004600000208861C8610846006840F0010008600B
:1004700008464068544908405049486008460068AA
:10048000524908404D4908600846006820F4802021
:1004900008600846406820F4FE004860002088603C
:1004A00000214FF00060FFF739FF00BD10B5404854
:1004B0000830006840F004003D49083108603F48BA
:1004C000C06940F080503D49C8614148406840F4EF
:1004D00080703F4948600846006840F004000860AA
:1004E0000846006840F002000860FFF76DFE10BD8E
:1004F0003048001D2E49091D086070470146490615
:100500002E4A926942F001022C4B9A612C4A083A19
:10051000526822F0E0622A4B083B5A601A46526841
:100520000A435A60704730B504460025FFF791FF33
:100530002248006840F480302049086000BF1F480E
:100540000068400C0028FAD04FF480601B494860D6
:10055000A01EC4B20846406840EA8440486008468D
:10056000406840F4803048601A48006840F032002B
:10057000184908601148006840F080700F49086011
:1005800000BF0E480068400E0028FAD00B484068B3
:1005900040F002000949486005E008484068C0F39F
:1005A000870505F00305022DF7D130BD80FFFF1F41
:1005B00008ED00E00000FA0500E400E00010024051
:1005C00008000140000401400000FFF8FFFFF6FEB4
:1005D0000070004000200240014600BF704700BF8D
:1005E000764A128802F04002002AF9D0C2B2734B58
:1005F0001B1D1A8070477149091D088000BF6F4993
:10060000098801F040010029F9D070472DE9F05F19
:1006100005460E46300103F049FC8146684905FB5A
:1006200001F003F043FC8246494603F029FB0746EC
:10063000384603F003FC84B2204603F037FC8346BF
:10064000394603F078FD82464FF0834103F076FC93
:10065000814603F0F3FB80464FF6FF7000EA041476
:1006600004EB080084B25748806940F00400554903
:1006700088610846806940F480408861524800687B
:1006800020F47F60504908600846006840F40B6021
:1006900008604C48C06840F480404A49C860084639
:1006A000C06820F48040C860444808300480001DC1
:1006B000008842F20C01084340490C31088008468A
:1006C000008840F4807008800846008840F02000D0
:1006D00008800223252201210846FFF737FEBDE8E6
:1006E000F09F2DE9F0473548008800F020000028F1
:1006F00061D03248001D0088C4B23448008800F43C
:100700000040002857D13148008800F4804000287C
:1007100037D00A2C03D000202C4908804BE02B480E
:10072000008840F400402949088029490979A1F14D
:10073000800002F0FFFF07460022264B02F0A2FED7
:10074000054602F0BDFD2449086021494979B422DB
:1007500001FB02F94FEAE97109EB11610912A1F1FC
:100760005C0002F0E7FF074600221C4B02F08AFE05
:10077000054602F0A5FD1A490860002013490880CB
:1007800019E00D2C06D11148008840F480400F4933
:10079000088010E00D480088C0F30D000C490C548F
:1007A0000A480088401C09490880084600881E281D
:1007B00001DD00200880BDE8F0870000003801401E
:1007C00040420F00001002400408014008000020D1
:1007D00010040020000014400C00002000004440E1
:1007E000100000201348806940F00400114988611E
:1007F0001148006820F00F000F49086008460068A3
:1008000040F002000860704718B901210B4A1160DE
:100810000FE00B490968491C094A1160814208D15F
:1008200006490968C943074AC2F8A0110021044AD1
:10083000116070470010024004080140A0012142ED
:10084000140000200000214210B54FF48051FE48F2
:1008500002F047F84FF40051FB4802F042F84FF421
:100860000051F94802F03FF84FF48051F64802F089
:100870003AF810BD10B54FF48051F34802F031F84A
:100880004FF40051F04802F02EF84FF40051EE48BA
:1008900002F027F810BD10B54FF48051EA4802F07D
:1008A00020F84FF48051E84802F01DF810BD2DE902
:1008B000F04105462C464FF48051E34802F013F80E
:1008C00000261CE0274607F08007802F04D1B901DD
:1008D000DD4802F006F804E04FF40051DA4802F077
:1008E00002F86006040E4FF48051D74801F0F9FF7A
:1008F0004FF48051D44801F0F6FF701CC6B2082EA8
:10090000E0DBBDE8F08110B50446FFF79DFF7820DD
:10091000FFF7CDFFFFF7BFFF0020FFF7C8FFFFF78E
:10092000BAFF2046FFF7C3FFFFF7B5FFFFF7A2FFAF
:1009300010BD10B50446FFF787FF7820FFF7B7FF1B
:10094000FFF7A9FF4020FFF7B2FFFFF7A4FF204603
:10095000FFF7ADFFFFF79FFFFFF78CFF10BD70B5EE
:1009600004460D461DB1E0B2FFF7E3FF02E0E0B23E
:10097000FFF7C9FF70BD70B504460D4605F1B00024
:100980000021FFF7ECFF102141EA14100021FFF7CE
:10099000E6FF04F00F000021FFF7E1FF70BD10B586
:1009A00000218D20FFF7DBFF00211420FFF7D7FF88
:1009B0000021AF20FFF7D3FF10BD10B500218D201F
:1009C000FFF7CDFF00211020FFF7C9FF0021AE2067
:1009D000FFF7C5FF10BD70B5002418E004F1B000AA
:1009E0000021FFF7BCFF00210846FFF7B8FF0021F8
:1009F0001020FFF7B4FF002505E001210846FFF7AE
:100A0000AEFF681CC5B2802DF7DB601CC4B2082C99
:100A1000E4DB70BD2DE9F04707460E469046994647
:100A200000250024A8F12000C5B27F2F02DD002799
:100A3000B01CC6B2B9F1100F24D131463846FFF7C9
:100A40009AFF002408E004EB0511804A505C012164
:100A5000FFF785FF601CC4B2082CF4DB701CC1B228
:100A60003846FFF788FF002409E004EB0511083140
:100A7000764A505C0121FFF772FF601CC4B2082C5B
:100A8000F3DB12E031463846FFF775FF00240AE039
:100A900005EB45016E4A02EB4101085D0121FFF7BC
:100AA0005EFF601CC4B2062CF2DBBDE8F08710B517
:100AB0000246012000E050430B00A1F10104E1B225
:100AC000F9D110BD2DE9FF5F074691461E460E9DE8
:100AD0004FF0000A002435E0301B401EC1B20A204E
:100AE000FFF7E5FFB9FBF0F00A21B0FBF1F201FBE3
:100AF0001208BAF1000F14D1701EA04211DDB8F136
:100B0000000F0CD1AB4605EBDB71491001FB047102
:100B1000C8B22B4620220199FFF77CFF10E04FF06E
:100B2000010AAB4605EBDB71491001FB0471C8B249
:100B300008F13001CAB22B460199FFF76BFF00BFE5
:100B4000601CC4B2B442C7DBBDE8FF9F2DE9F04191
:100B500004460F461546984600260FE0AA5D434618
:100B600039462046FFF756FF04F10800C4B2782C3E
:100B700002DD0024B81CC7B2701CC6B2A85D0028F4
:100B8000ECD1BDE8F0812DE9F04180460E461546D6
:100B9000002731464046FFF7EEFE00240AE02D4ACA
:100BA00002EB8511085D0121FFF7D9FE781CC7B261
:100BB000601CC4B2102CF2DB701CC1B24046FFF7BF
:100BC000DAFE00240CE06900491C224A02EB4111C4
:100BD000085D0121FFF7C3FE781CC7B2601CC4B2D8
:100BE000102CF0DBBDE8F08108B50121082002F0EF
:100BF00087F84FF44050ADF8000010208DF8030046
:100C000003208DF8020069460F4801F0BDFD4FF446
:100C100040510D4801F065FE4FF44870FFF75EFB50
:100C20000021AE20FFF79BFE00210846FFF797FE4C
:100C300000211020FFF793FE00214020FFF78FFED8
:100C40000021B02008E00000000C01404E450008E3
:100C50002643000818000020FFF781FE00218120B4
:100C6000FFF77DFE0021FF20FFF779FE0021A12084
:100C7000FFF775FE0021A620FFF771FE0021A820D6
:100C8000FFF76DFE00213F20FFF769FE0021C8201D
:100C9000FFF765FE0021D320FFF761FE0021084623
:100CA000FFF75DFE0021D520FFF759FE00218020CF
:100CB000FFF755FE0021D820FFF751FE0021052047
:100CC000FFF74DFE0021D920FFF749FE0021F1205A
:100CD000FFF745FE0021DA20FFF741FE0021122038
:100CE000FFF73DFE0021DB20FFF739FE0021302019
:100CF000FFF735FE00218D20FFF731FE0021142083
:100D0000FFF72DFE0021AF20FFF729FE08BD0000F0
:100D1000B048806940F00400AE498861AE48006880
:100D200020F47F40AC490860AA48806940F4007014
:100D3000A84988610846C06840F40070C860084649
:100D4000C06820F40070C8600846406820F4404045
:100D500048600846406840F4004048609F4800688A
:100D60009F4908409D490860084600680860084699
:100D7000006820F480700860081D006820F0020000
:100D8000091D08600846006820F4602008600846D5
:100D9000006840F4602008600846006840F4801055
:100DA00008600846006820F4006008608B4828301E
:100DB000006820F4700089492831086008460068FE
:100DC0000020086085480C30006820F0706083497E
:100DD0000C3108600846006840F4E01008607F4865
:100DE000001D006840F001007C49091D08600846AC
:100DF000006840F00800086000BF7848001D0068E7
:100E000000F008000028F8D17448001D006840F088
:100E100004007249091D086000BF7048001D006889
:100E200000F004000028F8D1704701466B483030CC
:100E3000006820F01F00694A3032106010460068D8
:100E4000084310606548001D006840F48000634A54
:100E5000121D106000BF6148001F006800F0020012
:100E60000028F8D05D484830006880B2704700B56F
:100E70000320FFF7DAFFA0F6FC00032190FBF1F35B
:100E8000184600BD10B55348806940F00400514930
:100E900088615148006820F070404F4908604D4813
:100EA000806940F400704B4988610846C06840F48E
:100EB0000070C8600846C06820F40070C86008462A
:100EC000406820F4404048600846406840F40040D4
:100ED0004860424800684249084040490860084666
:100EE000006808600846006820F480700860081DEB
:100EF000006820F00200091D08600846006820F420
:100F0000602008600846006840F4602008600846D9
:100F1000006840F4801008600846006820F4006013
:100F200008602E482830006820F470002B492831D2
:100F30000860084600680020086028480C300068F7
:100F400020F0704025490C3108600846006840F4E4
:100F5000600008602148001D006840F001001F4942
:100F6000091D08600846006840F00800086000BFDE
:100F70001A48001D006800F008000028F8D1174842
:100F8000001D006840F004001449091D086000BFFE
:100F90001248001D006800F004000028F8D101206C
:100FA000FFF79CF910BD2DE9F04107460C460025DE
:100FB000002608E03846FFF738FF0544C820FFF751
:100FC00071F9701CC6B2A642F4DBB5FBF4F080B236
:100FD000BDE8F081001002400008014004240140F7
:100FE000FFFFF00070B505460C461348806940F4D9
:100FF00000601149886111480580001F04800F4876
:101000002038008840F001000C492039088008464B
:10101000008840F04000088008482C38008840F0E4
:10102000010006492C3908800223192203211846A1
:10103000FFF78CF970BD0000001002402C2C01401D
:101040004D48806940F004004B498861084680693A
:1010500040F0080088614948006820F07F604749F7
:1010600008600846006840F008700860444800685E
:1010700020F0F000424908600846006840F0200077
:10108000086001203F490860704700B503460A46E2
:10109000FFF7D6FF3848C06940F002003649C86102
:1010A0000846806940F0080088610846806940F081
:1010B000040088613248001F006820F0FF003049BA
:1010C000091F08600846006840F0BB0008602B4814
:1010D000006820F07040294908600846006840F028
:1010E0003040086028480380001F028026481038DE
:1010F000008840F4C0402449103908800846008820
:1011000040F060000880081F008840F4E040091F9C
:1011100008800846008840F400600880081D0088A8
:1011200040F40060091D08800846008840F008006F
:101130000880081D008840F01000091D088008463E
:10114000008840F4805008800846008840F4807091
:1011500008800D481830008840F400400A491831D2
:101160000880802008492C3908800846008840F013
:101170000100088000BD000000100240000801408E
:10118000040C0140A08121422C04004010B56948A4
:10119000C06940F001006749C8610846806940F0B5
:1011A000040088616448006820F0FF00624908601C
:1011B0000846006840F044000860C804808940F098
:1011C0000100C90488810846808940F04000888178
:1011D00001231C2203211846FFF7B8F800204FF026
:1011E000804108854FF6FF7088850846008820F406
:1011F000407008800846008820F06000088008469B
:10120000008B40F0010008830846008B40F480709A
:1012100008830846008C20F0020008840846008CF1
:1012200020F0200008840846008B40F0300008833E
:101230000846008940F003000881002088840846A1
:10124000008840F00100088010BD3A48C06940F0B5
:1012500004003849C8610846806940F00800886188
:101260003648006820F07F4034490860084600682E
:1012700040F0884008600020314908804FF6FE7039
:10128000091D08802E481038008840F001002C49C4
:10129000103908800846008840F48070088028488B
:1012A00008380088264908390880084600880880E0
:1012B00023482038008840F0030021492039088065
:1012C0001F482838008840F001001D49283908804F
:1012D00070470146022904D003290BD0042919D1F3
:1012E0000FE04FF08042928C10B200224FF080430A
:1012F0009A8411E0134A128810B20022114B1A800E
:101300000AE00F4A121F128810B200220C4B1B1F5A
:101310001A8001E0002000BF00BF70474FF08040FE
:10132000008A4FF08040008A20F001004FF0804199
:10133000088270470010024000080140000C014084
:10134000280800402404004010B50220FEF7AAFF40
:1013500010BD08B50121082001F0D2FC1820ADF81D
:10136000000010208DF8030003208DF8020069466C
:10137000D24801F009FA1821D04801F0B2FA08BDAC
:1013800010B5CE48006820F47040CC49086008468B
:10139000006840F4405008600120C9490860C9490C
:1013A000C1F89001FFF7D0FF0020C5490860FFF7A2
:1013B000CBFF0020C349C1F8900110BD10B5BF4854
:1013C000006820F47040BD4908600846006840F499
:1013D000405008600020BA49091D0860B949C1F8A9
:1013E0008C01FFF7B1FF0120B549091D0860B5491F
:1013F000C1F88C01FFF7A8FF10BD10B50024AF485D
:10140000006820F47040AD4908600846006840F468
:10141000004008600120AA490860FFF795FF0120FD
:10142000A849C1F89001FFF78FFF07E0601CC4B224
:10143000FA2C03DDFFF7C2FF012010BDA048803861
:1014400000680028F2D19E49091D086000BFF4E73A
:1014500010B500209A49091D08609848006820F4DA
:101460007040964908600846006840F440500860A3
:1014700000209449C1F88C01FFF766FF01209049D4
:10148000091D0860FFF760FF00208E49C1F8900138
:1014900010BD10B500208A49091D08608748006802
:1014A00020F47040854908600846006840F44050C8
:1014B000086001208349C1F88C01FFF745FF012036
:1014C0007F49091D0860FFF73FFF00207D49C1F8F3
:1014D000900110BD70B504467848006820F4704053
:1014E000764908600846006840F4405008600020D3
:1014F0007349091D0860002512E0E0097049086081
:101500006006040E01206F49C1F89001FFF71CFF2F
:1015100000206B49091D0860FFF716FF681CC5B263
:10152000082DEADB70BD70B50546002463480068ED
:1015300020F47040614908600846006840F40040AB
:101540000860002615E000205D49091D0860FFF7CE
:10155000FBFE01205B49C1F890016006040E58486B
:101560008038006808B1601CC4B2FFF7EDFE701C43
:10157000C6B2082EE7DB15B9FFF78BFF01E0FFF7D6
:1015800067FF204670BD70B504460D461646FFF74E
:10159000F7FE002141EA4401C8B2FFF79BFFFFF7C5
:1015A0002CFF2846FFF796FFFFF727FF3046FFF78F
:1015B00091FFFFF722FFFFF701FF002070BD70B51C
:1015C00004460D46FFF7DCFE002141EA4401C8B2A3
:1015D000FFF780FFFFF711FF2846FFF77BFFFFF7BC
:1015E0000CFFFFF7CDFE012101EB4401C8B2FFF76C
:1015F00071FFFFF702FF0020FFF795FF0646FFF798
:10160000DDFE304670BD2DE9F04105460E46174619
:101610009846FFF7B5FE002141EA4501C8B2FFF741
:1016200059FFFFF7EAFE3046FFF754FFFFF7E5FEEC
:10163000002407E018F80400FFF74CFFFFF7DDFE79
:10164000601CC4B2BC42F5DBFFF7B8FE0020BDE869
:10165000F0812DE9F04106460F4614461D46FFF77E
:101660008FFE002141EA4601C8B2FFF733FFFFF7C2
:10167000C4FE3846FFF72EFFFFF7BFFEFFF780FEE0
:10168000012101EB4601C8B2FFF724FFFFF7B5FEC9
:101690000DE0012C04D10020FFF745FF287003E086
:1016A0000120FFF740FF2870601EC4B26D1C002CA3
:1016B000EFD1FFF783FE0020BDE8F081000C014070
:1016C0008C8121420080214210B5FFF742FE80222A
:1016D0006B216820FFF757FF6420FEF7FFFD002213
:1016E0006B216820FFF74FFF012219216820FFF7C7
:1016F0004AFF04221A216820FFF745FF10221B2110
:101700006820FFF740FF09221C216820FFF73BFFFC
:1017100075216820FFF753FF0446682C04D100228E
:101720006C21FFF730FF01E0012010BD2D20FEF7F6
:10173000D5FD0020F9E71FB502AB06223B2168204A
:10174000FFF787FF6B46062243216820FFF781FFE2
:101750009DF809009DF8081040EA012000B2914967
:1017600008809DF80B009DF80A1040EA012000B2A5
:101770008C4948809DF80D009DF80C1040EA01202E
:1017800000B2884988809DF801009DF8001040EA69
:10179000012000B2834988869DF803009DF802105D
:1017A00040EA012001B27F48C1869DF805009DF8FE
:1017B000041040EA012001B27A4801870146B1F9DC
:1017C00000100246B2F92020881A02F057FB754932
:1017D0008862B1F90220B1F92210501A02F04EFBD2
:1017E0007049C862B1F93420B1F95410501A02F0AE
:1017F00045FB6C49C865B1F93620B1F95610501A4D
:1018000002F03CFB0146674801660146B1F9382009
:10181000B1F95810501A02F031FB01466148416697
:101820001FBD30B58BB000250020069007900890B2
:10183000039004900590009001900290AAE0C82DBA
:101840005CDAFFF778FF5749B1F934100398084480
:1018500003905448B0F93600049908440490514864
:10186000B0F938000599084405904E49B1F90010C7
:101870000098084400904B49B1F9021001980844BF
:1018800001904849B1F90410029808440290BDF94A
:101890002410444AB2F93420881A002801DB01469A
:1018A00000E04142069A11440691BDF926203D49C7
:1018B000B1F93610501A002801DB014600E0414220
:1018C000079A11440791BDF928203649B1F938101B
:1018D000501A002801DB014600E04142089A1144F9
:1018E00008913048808EADF824002E48C08EADF8A7
:1018F00026002C48008FADF8280049E006983C28C7
:1019000005DA07983C2802DA08983C2810DB002505
:1019100000240AE0002006A941F8240003A941F8A8
:1019200024004DF82400601CC4B2032CF2DB2FE02D
:10193000C821009890FBF1F000B21A490884C82130
:10194000019890FBF1F001B216484184C821029839
:1019500090FBF1F001B213488184C821039890FBF9
:10196000F1F001B20F48A0F85410C821049890FB80
:10197000F1F001B20B48A0F85610C821059890FB71
:10198000F1F001B20748A0F858100120064908708C
:10199000681CC5B20448007800283FF450AF0BB073
:1019A00030BD0000240400209803002001460029D7
:1019B00001DA484200E00846704700B503460A468F
:1019C000002B03DA0020F749086002E00120F54906
:1019D00008601846FFF7EAFFF3490880002A07DA93
:1019E0000120F24908600020F149C1F8980106E0A1
:1019F0000020EE4908600120ED49C1F89801104629
:101A0000FFF7D4FF00F59670E749091D088000BD77
:101A100041F6F4210846E74A12684B429A4202DA3C
:101A20004A42E44B1A60E34A12688A4201DDE14A05
:101A30001160E14A126843429A4202DA4242DE4BA6
:101A40001A60DD4A1268824201DDDB4A106070478D
:101A50002DE9F14F84B0D94803904FF07A500290AD
:101A600000200190049802F009FA0546D448016864
:101A7000284602F06BFB044602F0C4F90490D148FA
:101A8000006802F063F806464FF06632CE4B01F074
:101A900069FE044601F014FCCA490860049801F08C
:101AA00049FE80464FF03332C84B01F05BFE0446DE
:101AB0000D46C448006802F049F8064622462B4607
:101AC00001F030FC824601F0FBFBBE49086008468D
:101AD0000168BF48006802F065F8BD490860BD496B
:101AE000BB48006802F0F6FA02D2BA48B84908606A
:101AF000B949B748006802F0EDF902D2B648B449D6
:101B00000860B6480168AF48006802F01FFB06464F
:101B1000019902F013FA0446AD480299006802F0F8
:101B20000DFA0646A7480399006802F007FA07462F
:101B3000314602F037F80546214602F033F8A8494D
:101B40000860A0480068A5490860A548006802F040
:101B500059F905B0BDE8F08F2DE9FC5F81460C46D0
:101B6000DFF880B2A0480190484601F0EFFF074639
:101B70004FF066329D4B01F0D5FB054601F0A0FB0E
:101B800082462046019902F0D9F906465146584648
:101B900002F0D4F90746314602F004F8054602F097
:101BA00031F900900098BDE8FC9F2DE9F14F84B019
:101BB0008F4803908F480290002001908E48006863
:101BC00001F0C4FF06468D4A8D4B01F0CBFD044663
:101BD00001F076FB88490860049801F0ABFD80466F
:101BE0004FF06632874B01F0BDFD04460D4682483A
:101BF000006801F0ABFF064622462B4601F092FB3F
:101C0000824601F05DFB7C490860084601687E4819
:101C1000006801F0C7FF7C4908607C497A48006889
:101C200002F058FA02D27948774908607849764834
:101C3000006802F04FF902D2754873490860754890
:101C400001686D48006802F081FA0646019902F0C9
:101C500075F904466C480168029802F06FF906466F
:101C600065480168039802F069F90746314601F0BA
:101C700099FF0546214601F095FF674908605E48D7
:101C80000068644908606448006802F0BBF805B069
:101C9000BDE8F08F2DE9FF5F82460C46DFF87CB18E
:101CA000002003905E480290504601F04FFF074627
:101CB00000225C4B01F060FE054601F001FB019043
:101CC00059480199006801F06DFF5749086057496C
:101CD0005548006802F0FEF902D2544852490860A3
:101CE00053495148006802F0F5F802D250484E4975
:101CF0000860504804600299006802F01FF90090E3
:101D000049480168039802F019F9074658460199B5
:101D100002F014F98046394601F044FF0646009966
:101D200001F040FF054602F06DF88146484604B0D8
:101D3000BDE8F09F2DE9F04F89B083468A465046B2
:101D400001F004FF80463C4A3C4B01F00BFD064687
:101D50000F463B48006801F0F9FE32463B46CDE9AC
:101D6000000101F0DFFA0446364A374B01F0FAFC75
:101D7000CDE90401584601F0E9FE0446334A344BEC
:101D800001F0F0FCCDE90201DDE9042301F0CAFA1B
:101D9000CDE9060101F094FA2949086009B0BDE8CF
:101DA000F08F0000A48121423804004094012142B8
:101DB00000002142A4030020A80300200000A0424C
:101DC0000C000020F00300206666E63F3333D33F6B
:101DD000F403002000803B4500803BC5F803002051
:101DE000EC030020000048436666E6BE66661240CB
:101DF00000004842CDCCCC3DE8030020CDCCCCCC7B
:101E0000CCCCE43F6666D63FE003002000409C4611
:101E100000409CC6E4030020DC0300200000614475
:101E2000000010C100A05540D80300200060EA4621
:101E30000060EAC6D4030020FA7E6ABC7493683F4F
:101E4000B00300205C8FC2F5285CEF3F7B14AE47E7
:101E5000E17A943F2DE9F04F89B083468A46504697
:101E600001F074FE8046EA4AEA4B01F07BFC06462C
:101E70000F46E948006801F069FE32463B46CDE96D
:101E8000000101F04FFA0446E44AE54B01F06AFC18
:101E9000CDE90401584601F059FE0446E14AE24BFF
:101EA00001F060FCCDE90201DDE9042301F03AFA1A
:101EB000CDE9060101F004FAD749086009B0BDE890
:101EC000F08F2DE9F04F8DB00AAB06223B21682040
:101ED000FFF7BFFB08AB062243216820FFF7B9FBE1
:101EE0009DF829009DF8281040EA012000B2CF4952
:101EF00048809DF82B009DF82A1040EA012000B28E
:101F0000CA4908809DF82D009DF82C1040EA012058
:101F100000B2C64988809DF821009DF8201040EA53
:101F2000012001B2C148C1869DF823009DF822100E
:101F300040EA012000B2BD4988869DF825009DF841
:101F4000241040EA012001B2B84801870146B1F9E6
:101F5000360001F093FF8146B449B1F9380001F031
:101F60008DFF0490B149B1F9000001F087FF0690A0
:101F7000AE49B1F9040001F081FF05904FF08E41A8
:101F8000484602F0A7F805D24FF08F41484602F0CC
:101F9000DDF881464FF08E41049802F09BF805D29F
:101FA0004FF08F41049802F0D1F804904FF08E4129
:101FB000069802F08FF805D24FF08F41069802F094
:101FC000C5F806904FF08E41059802F083F805D2CF
:101FD0004FF08F41059802F0B9F8059089F0004064
:101FE00093490860059801F0B1FD074688460698B8
:101FF00001F0ACFD3A464346CDE9000101F0A0F8FE
:10200000054600228B4B01F0ADFB8B4A8B4BCDE993
:10201000020101F037FA824601F052F90790484672
:1020200001F094FD07464FF06632854B01F02AFA25
:10203000054601F045F9814649460798FFF70AFF32
:102040007A49B1F9340001F019FF04467749B1F932
:10205000020001F013FF07904FF08E41204602F07E
:1020600039F805D24FF08F41204602F06FF8044650
:102070004FF08E41079802F02DF805D24FF08F41B6
:10208000079802F063F8079084F000406D490860FB
:10209000079801F05BFDCDE90001059801F056FDC0
:1020A0000546DDE9002301F04BF882460022614B32
:1020B00001F058FB0746604A604B01F0E3F9CDE9B7
:1020C000020101F0FDF80690204601F03FFD0546B3
:1020D0004FF066325A4B01F0D5F9074601F0F0F89F
:1020E000044621460698FFF725FE0DB0BDE8F08FA7
:1020F00010B55548008800F00100002878D05248FB
:10210000008820F0010050490880FFF7DAFEFEF752
:10211000AEFE4E4908604E48007818B14C48007831
:10212000022812D10420FFF7D4F84A490860454834
:10213000016849480068FFF7ADFD48490860454817
:102140000068FFF732FD46490860414800780128E1
:1021500019D10220FFF7BDF84042424908604249C8
:102160003348006801F0F2FF044621462A4800681F
:10217000FFF7F2FC3D4908603A4800684042FFF72B
:1021800067FC3B49086032480078401C30490870C1
:1021900008460078032803D10020087000F076F884
:1021A00034492D48006801F095FE22D232492A4870
:1021B000006801F08FFF1CD230491748006801F019
:1021C00089FF16D22E491448006801F083FE10D210
:1021D000224800682249096808442A4908602348BF
:1021E0000068404222490968401A2749086005E012
:1021F0000CE000202449086022490860FFF708FC31
:10220000214801681F480068FFF7D7FB002010BD78
:10221000FA7E6ABC7493883FB40300205C8FC2F5D9
:10222000285CEF3F7B14AE47E17A943F2404002002
:10223000BC03002000806640F1D4C853FB21094054
:1022400066663040B8030020102C0140AC0300202B
:10225000D00300209C030020B0030020C003002016
:10226000C4030020A00300200000A042C8030020F7
:10227000CC0300200000D242000096420000A0C122
:102280000000A041A4030020A8030020F8B50C23FF
:10229000F5A200210846FEF759FCF4480068002822
:1022A0000FDB0C23F2A200211420FEF74FFC0C20C0
:1022B00003230090ED48002102681B20FEF702FC7A
:1022C0000FE00C23EBA200211420FEF73FFC0C20B2
:1022D00003230090E5480068424200211B20FEF7DE
:1022E000F1FB0C23E4A200213C20FEF72FFCE34885
:1022F000006800280FDB0C23DDA200215020FEF730
:1023000025FC0C2003230090DC48002102685720A4
:10231000FEF7D8FB0FE00C23D6A200215020FEF7D9
:1023200015FC0C2003230090D44800684242002191
:102330005720FEF7C7FB0C23D1A201210020FEF796
:1023400005FC0C2003230090D048012102683C20AA
:10235000FEF7B8FB0C23CEA201215020FEF7F6FBBE
:102360000C23CCA202210020FEF7F0FB0021CA487A
:10237000006801F0AFFE13D80C23BDA20221192082
:10238000FEF7E4FBC448006801F058FD04460C2049
:1023900004232246022100902020FEF793FB15E043
:1023A0000C23B4A202211920FEF7D0FBBA48006822
:1023B00080F00045284601F041FD04460C2004232E
:1023C0002246022100902020FEF77CFB0C23B3A2C2
:1023D00002213C20FEF7BAFB0021B148006801F061
:1023E00079FE13D80C23A2A202215B20FEF7AEFBDC
:1023F000AB48006801F022FD04460C20042322466D
:10240000022100906220FEF75DFB15E00C2399A2EB
:1024100002215B20FEF79AFBA148006880F000458E
:10242000284601F00BFD04460C200423224602211D
:1024300000906220FEF746FB0C239AA203210020A5
:10244000FEF784FB00219948006801F043FE34D870
:102450000C2387A203211E20FEF778FB9348006817
:1024600001F0ECFC04460C200223224603210090DC
:102470002520FEF727FB0C238DA203213120FEF738
:1024800065FB8C498948006801F058FD054601F05C
:10249000B9FC0A2190FBF1F201FB12040C2001238C
:1024A0002246032100903620FEF70CFB0C2382A26B
:1024B00003213E20FEF74AFB39E00C236DA20321E5
:1024C0001E20FEF743FB7948006880F0004528464F
:1024D00001F0B4FC04460C200223224603210090A4
:1024E0002520FEF7EFFA0C2371A203213120FEF71D
:1024F0002DFB6E48006880F000466E49304601F0C2
:102500001DFD054601F07EFC0A2190FBF1F201FB66
:1025100012040C2001232246032100903620FEF7EE
:10252000D1FA0C2364A203213E20FEF70FFB0C23FB
:1025300062A204210020FEF709FB00216148006827
:1025400001F0C8FD34D80C2349A204211E20FEF757
:10255000FDFA5C48006801F071FC04460C2003237E
:102560002246042100902520FEF7ACFA0C2350A24D
:1025700004213720FEF7EAFA4E495248006801F07C
:10258000DDFC054601F03EFC0A2190FBF1F201FB67
:1025900012040C2001232246042100903C20FEF767
:1025A00091FA0C2344A204214420FEF7CFFA39E02B
:1025B0000C2330A204211E20FEF7C8FA414800680F
:1025C00080F00045284601F039FC04460C20032326
:1025D0002246042100902520FEF774FA0C2334A231
:1025E00004213720FEF7B2FA3648006880F0004632
:1025F0003049304601F0A2FC054601F003FC0A21F7
:1026000090FBF1F201FB12040C200123224604216D
:1026100000903C20FEF756FA0C2327A20421442008
:10262000FEF794FAF8BD70B50646002418E004F1F0
:10263000B0000021FEF793F900210846FEF78FF95C
:1026400000211020FEF78BF9002505E0012130461E
:10265000FEF785F9681CC5B2802DF7DB601CC4B29B
:10266000082CE4DB70BD000056783A009C03002083
:102670002B0000002D00000056793A00A003002036
:10268000766F6C746167653A00000000AC0300204F
:102690002500000047503A00BC03002047523A0092
:1026A000B80300205049543A00000000B403002051
:1026B0002E0000000000204164656700526F6C3AF4
:1026C00000000000B003002010B50446CC4884424E
:1026D00008D10121042000F02DFB0021042000F08E
:1026E00029FB46E0C748844208D10121082000F0B8
:1026F00021FB0021082000F01DFB3AE0C248844283
:1027000008D10121102000F015FB0021102000F05D
:1027100011FB2EE0BD48844208D10121202000F0A9
:1027200009FB0021202000F005FB22E0B84884428C
:1027300008D10121402000F0FDFA0021402000F0E6
:10274000F9FA16E0B348844208D10121802000F054
:10275000F1FA0021802000F0EDFA0AE0AE48844250
:1027600007D10121801500F0E5FA0021A01500F045
:10277000E1FA10BD10B50121084600F0DBFA002196
:10278000012000F0D7FA10BD2DE9F04102460025E6
:102790000026002000230024002791F803C00CF03D
:1027A0000F0591F803C00CF0100CBCF1000F03D022
:1027B00091F802C04CEA050591F800C0BCF1000F89
:1027C00031D0146800202BE04FF0010C0CFA00F31C
:1027D000B1F800C00CEA03069E4220D183004FF0FE
:1027E0000F0C0CFA03F7BC4305FA03FC4CEA040493
:1027F00091F803C0BCF1280F06D14FF0010C0CFA80
:1028000000FCC2F814C00AE091F803C0BCF1480F04
:1028100005D14FF0010C0CFA00FCC2F810C0401CAE
:102820000828D1D31460B1F800C0BCF1FF0F34DD2B
:10283000546800202EE000F1080C4FF0010808FA5F
:102840000CF3B1F800C00CEA03069E4221D18300CC
:102850004FF00F0C0CFA03F7BC4305FA03FC4CEAEB
:10286000040491F803C0BCF1280F05D100F1080C55
:1028700008FA0CF8C2F8148091F803C0BCF1480FB4
:1028800007D100F1080C4FF0010808FA0CF8C2F863
:102890001080401C0828CED35460BDE8F0814FF66C
:1028A000FF710180022181700421C17070470246CE
:1028B000002093680B400BB1012000E0002070471E
:1028C0000146886880B2704702460020D3680B40FA
:1028D0000BB1012000E0002070470146C86880B2BB
:1028E000704701617047416170470AB1016100E0C2
:1028F00041617047C16070474FF480320A43826182
:102900008161826182698269704702460020434B7F
:1029100018684FF68073184040EA021008433F4B96
:10292000186070473E49C8617047F0B50A460023F9
:1029300000240021002500F00046B6F1004F02D12E
:10294000364EF16901E0354E7168C0F3034583B23C
:1029500000F44016B6F5401F08D121F070612F4EEB
:10296000766826F070662D4F7E6012E000F48016C7
:10297000B6F5801F06D1032606FA05F4A14341F0FF
:10298000706106E0460D360103FA06F6B14341F0E8
:10299000706122B1460D360103FA06F6314300F0AC
:1029A0000046B6F1004F02D11C4EF16101E01B4E12
:1029B0007160F0BD30B500228B071C0F0F2303FAA6
:1029C00004F2164B08338C1053F824309343134C05
:1029D00008348D1044F8253023468C1053F82430E9
:1029E0008C07240F00FA04F423430C4C08348D1098
:1029F00044F8253030BD0A49DC31086070470000DA
:102A000000080140000C014000100140001401408A
:102A100000180140001C014000200140000001405E
:102A200000002042DF48006840F00100DD490860F6
:102A300008464068DC490840DA49486008460068B2
:102A4000DA490840D74908600846006820F4802029
:102A500008600846406820F4FE0048604FF41F00FC
:102A600088607047CF49096821F48031CD4A1160F0
:102A70001146096821F480211160B0F5803F03D030
:102A8000B0F5802F0ED106E0C649096841F48031C7
:102A9000C44A116007E0C349096841F4A021C14A52
:102AA000116000E000BF00BF704710B50146002272
:102AB000002300204A11012A02D1BA4C236806E003
:102AC000022A02D1B74C236A01E0B64C636A01F0D6
:102AD0001F02012494401C400CB1012000E00020A2
:102AE00010BD38B5002000900024002500BF312023
:102AF000FFF7DBFF05460098401C00900098B0F5FA
:102B0000A06F01D0002DF2D03120FFF7CEFF08B129
:102B1000012400E00024204638BD01460020A14ADF
:102B2000106820F0F80040EAC10010607047A0492A
:102B300008607047024600209A4B586820F47C10C9
:102B400042EA01031843974B58607047984908665A
:102B5000704701460020934A506820F00300084364
:102B6000506070478F48406800F00C007047014685
:102B700000208C4A506820F0F000084350607047F5
:102B800001460020874A506820F4E0600843506006
:102B9000704701460020834A506820F4605040EAA4
:102BA000C1005060704729B17E4A527A02437D4B82
:102BB0005A7204E07B4A527A82437A4B5A727047C7
:102BC0007B49D8310860704701460020754A50683B
:102BD00020F440400843506070470021714A203281
:102BE0001170704A82F82010012802D004280AD1FE
:102BF00004E001216B4A2032117005E00521694A89
:102C00002032117000E000BF00BF704769490860C2
:102C100070476449096A0143624A11627047654915
:102C200044390860704730B5002100220024002399
:102C30005C4D6D6805F00C0121B1042905D008290F
:102C400023D105E05C4D056022E05B4D05601FE08F
:102C5000544D6D6805F47012524D6D6805F4803462
:102C6000022505EB92421CB9544D554305600BE01B
:102C70004C4D6D6805F400351DB1504D5543056050
:102C800002E04D4D5543056002E04B4D056000BF2D
:102C900000BF444D6D6805F0F0010909484D6B5CBB
:102CA0000568DD4045603F4D6D6805F4E061090A47
:102CB000434D6B5C4568DD4085603A4D6D6805F4B9
:102CC0006051C90A3E4D6B5C4568DD40C560354DBD
:102CD0006D6805F44041890B3A4D6B5CC568B5FBE6
:102CE000F3F5056130BD29B12E4A526902432D4BDF
:102CF0005A6104E02B4A526982432A4B5A61704759
:102D000029B1284A92690243264B9A6104E0254A78
:102D100092698243234B9A61704729B1214AD26953
:102D20000243204BDA6104E01E4AD26982431D4B04
:102D3000DA61704729B11B4AD2680243194BDA6045
:102D400004E0184AD2688243164BDA60704729B112
:102D5000144A12690243134B1A6104E0114A1269C2
:102D60008243104B1A61704712494039086070471E
:102D70000F49C86470470B49C87170470948406AD9
:102D800040F0807007494862704701460020054ABC
:102D900092680A400AB1012000E000207047014912
:102DA00088727047001002400000FFF8FFFFF6FE37
:102DB000000042428004424200127A0000093D00B5
:102DC000FC0300200C0400207047704770477047D8
:102DD00070470000004870478C0400207546FFF7DC
:102DE000F9FFAE4605006946534620F007008546C8
:102DF00018B020B5FDF7FAF9BDE820404FF0000605
:102E00004FF000074FF000084FF0000B21F00701D2
:102E1000AC46ACE8C009ACE8C009ACE8C009ACE815
:102E2000C0098D4670470446AFF300802046FDF789
:102E3000C4F9490050EAC12018BF04204A0D18BF48
:102E400040F0010040F2FF72B2EB515F08BF40F06A
:102E50000200012808BF052070472DE9F0414F1EF0
:102E600000EBC7010446D1E9000115461E4637F0C4
:102E700006020DD02A46334600F074FC7F1E04EB98
:102E8000C703D3E9002300F04DFA37F00602F1D171
:102E9000022F25D0042F13D0062F18BFBDE8F081D4
:102EA0002A46334600F05EFCD4E90A2300F03AFAE1
:102EB0002A46334600F056FCD4E9082300F032FAE3
:102EC0002A46334600F04EFCD4E9062300F02AFAE5
:102ED0002A46334600F046FCD4E9042300F022FAE7
:102EE0002A46334600F03EFCD4E9022300F01AFAE9
:102EF0002A46334600F036FCD4E90023BDE8F04111
:102F000000F010BA012201F0C8B900F00BBA0000BD
:102F1000024A0020110701F0C0B9000001FDFFFFC7
:102F20002DE9F84F04460D4621F000400091734909
:102F3000814211DC7249884201DC06D12CB1204665
:102F40002946BDE8F84FFFF7DDBF6E48002DCCBF26
:102F50006D496E49BDE8F88F6D49814211DD6D49BB
:102F60008142D8BF4FF0FF366DDD20462946FFF77E
:102F700060FF042808BFFFF7CBFF20462946BDE8C5
:102F8000F88F6549654F25F00045814233DD64497E
:102F9000814219DD002632464FF080432046294603
:102FA00000F0C0F980468A4601222046294601F0F9
:102FB00074F900223B4600F0DFFC4246534600F025
:102FC00061FA04460D463EE001260022BA463B4621
:102FD0002046294600F0A6F980460F4600225346B7
:102FE0002046294600F0C8FC42463B4600F04AFA1B
:102FF00004460D4627E04B4981421BDDDFF828A13E
:103000000226002253462046294600F0ABFB002250
:103010003B4600F087F980460F4600225346204683
:10302000294600F0A9FC42463B4600F02BFA044634
:103030000D4608E0032622462B4600203B4900F0BF
:1030400021FA04460D4622462B461046194600F04A
:1030500089FB8B46824602460B4600F083FB0746FF
:103060000246334888460B4606217844FFF7F5FEB2
:1030700052465B4600F076FB82462E488B463A4627
:10308000434605217844FFF7E8FE3A46434600F000
:1030900069FB02460B46002E504659460CDA00F0FA
:1030A00041F922462B4600F05DFB01B022462B463B
:1030B000BDE8F04F00F054BC00F034F922462B4636
:1030C00000F050FB1C4A7A4402EBC603D3E900230C
:1030D00000F052FC22462B4600F04EFC174A7A4480
:1030E00002EBC603D3E9002300F03AFC009A002A61
:1030F000B8BF81F00041BDE8F88F00000000104427
:103100000000F07F182D4454FB21F93FFB21F9BF4B
:103110000000DC3F0000203E0000F33F0000F03FD5
:103120000000E63F008003400000F83F0000F0BFD1
:103130003A1B0000F81A0000961A00005E1A000000
:103140002DE9F04D9446CCF1000423F000464CEA02
:103150000404524F46EAD4749A46884621F000424D
:10316000BC4206D8454240EA050442EAD474BC4257
:1031700004D9BDE8F04D6246FFF7C7BEAAF140553D
:10318000A5F17F6555EA0C040BD0022404EAAA7469
:10319000434DDFF810E144EAD87452EA000B04D042
:1031A0000CE0BDE8F04DFFF7BBBE002C14BF012CB6
:1031B000BDE8F08D022C30D0032C32D056EA0C0B37
:1031C0000AD0BE4220D1BA4209D126F0804622F070
:1031D00080423346114617E000291ADB25E0DFF86C
:1031E000C8B0FB44002C04BFDBE90001BDE8F08D52
:1031F000012C02BFDBE9000181F00041BDE8F08D48
:10320000022C0AD0032C0CD0BA4212D1B8F1000F14
:103210000BDA23482549BDE8F08D28462449BDE84E
:10322000F08D28467146BDE8F08D1D482149BDE866
:10323000F08D921B12153C2AC4BF19481D490EDCA3
:10324000BAF1000FBEBF12F13C0F0020014606DBB1
:10325000624600F017F921F00041FFF761FE002CF3
:1032600008BFBDE8F08D012C04BF81F00041BDE82E
:10327000F08D114A114B022C07D000F07DFB2A463D
:10328000BDE8F04D0A4B00F077BB00F075FB2A4615
:10329000BDE8F04D064B00F063BB00000000F07F7E
:1032A000182D4454FB2109C0F2190000FB21F9BF7D
:1032B000FB210940FB21F93F075C143326A6A13C02
:1032C00021F00042A2F16052B2F5801F01F00043EC
:1032D00028BFD2F17F6C0BD95FEA001C43EAC2021F
:1032E00042EB507018BF704728BF20F001007047B4
:1032F000B2F5801FBCBF184670474FEA410C1CF561
:10330000001F02D2084600F0E0BE70B500F0D4FA0B
:1033100000000089FFF7F6BF4FF00040A0F58000E5
:103320007047000010B591EA030F48BF83F00043D7
:1033300000F12A83841A71EB030C05D2121943EBB6
:103340000C03001B61EB0C01DFF824E14FEA115480
:10335000A4EB135C1EEA430F18BF9EEA445F73D0D0
:1033600023EA0E03DCF1200E21EA045143F480131A
:1033700032D322FA0CFE10EB0E0023FA0CFE41EBC6
:103380000E01CCF1200E03FA0EFE10EB0E0051F1EF
:103390000001B1F5801FCCF1200E32D201EB0451B7
:1033A00012FA0EF2BDE8104058BF7047401C38BFFB
:1033B0005FEA420218BF7047002814BF20F00100E6
:1033C00041F100014FEA410313F5001F38BF704778
:1033D000A1F1C04100F0BEBA012A43EB0302ACF1F7
:1033E000200CDCF11F0E32BF4FF0000E23FA0CF35D
:1033F00010EB030041EB0451B4EB115FD0D0A1EB13
:10340000045101F5801149085FEA300001EB0451D5
:103410000ED350F1000038BF12FA0EFE08D1BDE8FD
:103420001040C9E7401C38BF5FEA4202CAD1C3E777
:10343000BDE810404FEA410313F5001F38BF704745
:10344000A1F1C04100F086BA9EEA445F08D011EABB
:103450005E0FBDE8104004BF01F00041002070473E
:10346000BDE8104070B500F027FA00BF64FBBE3E17
:103470000000E0FF02494FF0000000F0DCBE00BF9A
:103480000000F87F2DE9C04130B4DFF8A0C23CEA6B
:10349000111418BF3CEA131400F0EC8081EA030514
:1034A0001CEA111444EAD57418BF1CEA131500F085
:1034B000C780A4EB05044FF0004545EAC12145EA69
:1034C000C32341EA505143EA525304F17F749942B5
:1034D00004F500344FEAC0204FEAC22208BF9042F0
:1034E00000F09C804FEA13650FF24016765D4FEABC
:1034F000134506FB05F7C7F1807706FB07F74FEA90
:10350000D737A7FB03687642C8F58038A7FB06CEFD
:1035100038BFA8F1010807FB08E64FF0000EA6FB34
:10352000028CE6FB03CEDCF1000CCEF1004E38BF7E
:10353000AEF1010EA6FB0C584FF000074FF000054E
:10354000E6FB0E87A1FB08C6A0FB07CE16EB0E0616
:1035500045F10005E1FB076515F1E04E7EBFA4F5DE
:1035600080345FEA46066D4116F1800745F100059B
:103570004FEA17274FEA066647EA0567A6F1DE46D7
:10358000B6F1805F4FEA15251FD9384624F0010CAB
:1035900005EBC471BCF1FE6F01EB0C1102D8F0BC5D
:1035A000BDE8008124425CBF01F5801E9EEAC47F15
:1035B00002D4F0BCBDE80081244238D4F0BCA1F1B3
:1035C000C041BDE8004100F0C5B94FEAD22242EA4D
:1035D00043524FEAD323A7FB02864FEAD02040EAAA
:1035E000415007FB03661EEA0E0F4FEAD12105FB8F
:1035F000026658BFA6EB0056B6EB00564FEA520ED5
:103600004EEAC37E18EB0E0E56EB530EBDD518EBEB
:1036100002085E417F1C55F10005B6E74FF48015A6
:103620004FF000074FF000064FF00008ADE7F0BC88
:103630004FF0000001F1C04101F00041BDE8008100
:1036400011EA0C1F0CEA131500D00CE013EA0C1F52
:1036500000F025804FF00000F0BC81EA030101F08A
:103660000041BDE80081F0BCBDE8004181EA0301F2
:1036700000F070B9F0BCBDE8004170B500F01CF975
:10368000097EFC3E00F007B881EA03014FF000001C
:1036900001F00041704781EA030100F05BB9F0BC22
:1036A000BDE800414FF0000021497047FFFDFBF9E4
:1036B000F7F5F4F2F0EEEDEBE9E8E6E4E3E1E0DE65
:1036C000DDDBDAD8D7D5D4D3D1D0CFCDCCCBCAC8D7
:1036D000C7C6C5C4C2C1C0BFBEBDBCBBBAB9B8B7FE
:1036E000B6B5B4B3B2B1B0AFAEADACABAAA9A8A8F1
:1036F000A7A6A5A4A3A3A2A1A09F9F9E9D9C9C9BBF
:103700009A99999897979695959493939291919069
:103710008F8F8E8E8D8C8C8B8B8A898988888787FA
:103720008685858484838382828181800000FF076F
:103730000000F87F10F0004248BF4042B0FA80F32A
:1037400010FA03F10AD0C3F11D0303F580634FEAB9
:10375000415002EB035202EBD12170474FF00000C1
:1037600070470000DFF848C170B51CEA111E1EBF8B
:103770001CEA13159EEA0C0F95EA0C0F00F06F80FF
:1037800081EA030423EA4C134EEAD47E21EA4C1169
:1037900041F4801143F48013AE44A1FB024CA0FB22
:1037A0000365AEF17F7E361955EB0C05A1FB034C8A
:1037B0004CF10003A0FB021C16EB0C06654153F113
:1037C0000003094218BF46F0010613F4007F0BD135
:1037D0004FEA03314FEA0530340341EA155140EA1C
:1037E00016506FF003020AE04FEAC3214FEAC520EA
:1037F000F40241EA555140EA56506FF0020202EBE2
:103800002E4201EB025585EACE710AD05FEA440CE4
:1038100018BF24F0004450F1000041F1000120EAFB
:10382000D47040F2FE7C624500D270BDA84214BF45
:103830004FF080444FF04044002E08BF0024BEF1FA
:10384000806FA8BFA1F1C041BDE8704080F28280C6
:103850004FF0000001F1C04101F0004170479EEAC5
:103860000C0F0CEA131518BF95EA0C0F06D04FF099
:10387000000081EA030E0EF0004170BD00F01CF85C
:103880008900013E00F007B800F009B84FEA430C88
:103890005FEA5C5C08D081EA030100F05BB84FEAA4
:1038A000410C5FEA5C5CF6D14FF0000001497047C3
:1038B0000000FF070000F87F0EF1020E2EF0030E4D
:1038C0005EF8046B364205D4012A43EB030515F577
:1038D000001F12D8012841EB010C1CF5001F0CD869
:1038E0000ED14FEAD17C15F5001F0CEB4C0C0CF1FE
:1038F000020C08BF4CEBD37C04E04FF0080C01E055
:103900004FEAD37C0CEB4C0526FA05F606F00706C9
:10391000B6F1040C06D20EEB860CBDE870404CF0FC
:10392000010C6047DFE80CF0090B02024FF0004188
:103930004FF00000A1F5002170BD19461046012886
:1039400051EB010418BFD4F5001484BF002001F02E
:10395000004170BD0808A0F500114FEA3101704721
:1039600091EA030F10B581F000413FF5E3AC83F01D
:10397000004300F009B8000010B591EA030F48BFFA
:1039800083F000433FF5D6AC841A71EB030C07D2E9
:1039900012198CF0004C43EB0C03001B61EB0C0183
:1039A000DFF8A4E14FEA1154A4EB135C1EEA430FC5
:1039B00018BF9EEA445F00F0B08023EA6E035242D3
:1039C00021EA0451C3EB6E0338BF5B1EDCF1200E0D
:1039D00025D322FA0CFE10EB0E0043FA0CFE41EB4D
:1039E0000E01CCF1200E03FA0EFE10EB0E0051F189
:1039F0000001CCF1200E29D412FA0EF201EB045191
:103A0000BDE8104058BF7047401C1CBFB2F1004FCA
:103A1000704700280CBF491C20F00100704712EBD2
:103A2000020E43EB030218BF4FF0010E4EEA4202B2
:103A3000ACF1200CDCF11E0E54D943FA0CFE10EB55
:103A40000E0051F1FF31CCF11E0ED5D50EF1010E55
:103A500012FA0EFE404141EB010101EB445C5FEACA
:103A60005C5C10D910EBDE7001EB045138BFBEF185
:103A7000004FBDE8104018BF704700280CBF491C1C
:103A800020F00100704730D24FEAD42C11F500111C
:103A900024F400641BD0B1FA81F20B3AA41AA41EDC
:103AA000D2F12003914030FA03F31943904001EB27
:103AB000CC71002C01EB0451BDE81040A8BF704749
:103AC00001F1C0414FF0000001F000417047B0FA31
:103AD00080F310FA03F100D110BDE41A173C480539
:103AE000C90AE4E701EB045110BD491001EB045190
:103AF000BDE810404FEA300002E04FF0000170478F
:103B00004A0008BF0042F8D0B2F5001F28BF704736
:103B100001F000414FF0000070479EEA445F07D07B
:103B200011EA5E0FBDE8104004BF0021002070477D
:103B3000BDE8104070B5FFF7BFFE00BF40DFF63EA6
:103B400083F00041104670470000E0FF43004FEA59
:103B5000D30C4FEA3C0C43401FBF40070CF16051AF
:103B600013F0FE4F70471CF0006F03D100200CF0E3
:103B7000004170470CF0004343EA507010B540EA32
:103B8000CC0000F05CFA00BF000000924FEA000198
:103B9000FFF7E0BE4FF000414FF00000A1F500211B
:103BA0007047000090EA010F48BF81F0004100F12A
:103BB000D482421A3CBF801A89184FEAD0524FF083
:103BC0007F4C1CEA410FA2EBD15318BF9CEA026F55
:103BD00000F03B804FF0004C4CEA00204CEA012101
:103BE00021FA03FC10EB0C0C1ED202F1FF325FEA4B
:103BF0001C2040EBC25038BF70471CF07F0F4FEACB
:103C0000400C18BFBCF17F4F38BF7047C3F1200391
:103C1000994008BF20F00100BCF17F4F38BF7047CA
:103C2000A0F1C04000F051BA4FEA3C00000A40EB5E
:103C3000C25028BF1CF0FF0F4FEA400CE6D018BF5F
:103C4000BCF17F4F38BF7047EAE79CEA026F05D0AE
:103C500010EA5C0F08BF00F00040704710B500F09C
:103C6000EEF900BF64FBBE3E401058BFC0F14040BB
:103C7000491058BFC1F140418142EFF300807047C5
:103C80004FF47F0C1CEAD0121EBF1CEAD11392EA3B
:103C90000C0F93EA0C0F00F0858090EA010F48BFEB
:103CA00042F4807240F4000C41F400002CF07F419B
:103CB00020F07F4000B58142A2EB03020FF2081C06
:103CC000ACEB504EC0F100009EF800E04FEA4E0E03
:103CD00000FB0EFC38BF49004FEA2C1C02F5FA022B
:103CE0000CFB0EF34FEACE1E4FEA112C4FEAC12116
:103CF0000EEB635E42EB22420EFB0CFC4FEA1C53C0
:103D000000FB03114FEA112C4FEA01310EFB0CFCB2
:103D10004FEADC4C00FB0C11C14228BF09184CEBE8
:103D200003335DF804EB10EB410143EBC250B2F5F5
:103D30007C0F38BF704729D512F0F00F1CBF00F17F
:103D4000C04000F0004070470081828384858687F0
:103D500088898B8C8D8E8F919293959697999A9C4A
:103D60009D9FA0A2A3A5A7A8AAACAEB0B2B3B5B7B9
:103D7000B9BCBEC0C2C5C7C9CCCED1D4D7D9DCDF8F
:103D8000E2E6E9ECF0F3F7FAFE0000004FEA400C3F
:103D90000CF1807CBCF17E4F28BF7047B0F1C04071
:103DA00000F093B990EA010F0CEAD11348BF42F436
:103DB0008072624538BF634507D213F47F0F16D077
:103DC00080EA010000F00040704710B500F037F9BC
:103DD000097EFC3E00F005B880EA010000F00040DA
:103DE000704780EA010000F0004000F06EB912F464
:103DF0007F0F04BF0248704780EA010000F065B9F8
:103E00000000C07F41000B0ED3F19E0208D950F490
:103E100000034FEA032323FA02F048BF40427047F1
:103E200010B500F00CF900BF4992248000207047C3
:103E30006FF0004282EA200070470000C10DD1F10E
:103E40009E0206DB4FEA002343F0004323FA02F010
:103E50007047004207D54FEA4001B1F1FE4F02D250
:103E60004FF00000704710B500F0E9F84992248047
:103E7000002070476FEA20007047000010F00041FA
:103E800048BF4042B0FA80F310FA03F2C3F19D0339
:103E90000BD051EAC35101EB1220530638BF7047D3
:103EA00000F1010008BF20F001007047B0FA80F374
:103EB00010FA03F2C3F19D030AD0D90501EB1220D9
:103EC000530638BF704700F1010008BF20F0010021
:103ED0007047000050EA010C00F113801CF5000F40
:103EE00058BFBCF5000F01D48842704707D710F5C2
:103EF000000F58BF11F5000F15D488427047894252
:103F000070471CF5000F04D5BCF5000FF7D58142B2
:103F100070474FF0807C1CEB400F38BF1CEB410F0B
:103F200001D28142704710B500F089F8922449000F
:103F30004FF000504FF08051FFF796BE4FF47F0CCA
:103F40001CEAD0121EBF1CEAD11392EA0C0F93EAAE
:103F50000C0F00F0478090EA010F48BF42F48072D6
:103F60004FF0004C4CEA00204CEA012102EB030226
:103F7000A0FB0113A2F50002002918BF43F00103C2
:103F80005B0028BF4FEA330342EB22425FEA132C67
:103F90004CEBC2502EBFBCEB436FB2F57C0F7047A9
:103FA0004FEA036CBCF1004F08BF20F00100B2F5EE
:103FB0007C0F38BF70470BD582F0FF0212F5803FAF
:103FC000C8BF704700F1C040D8BF00F00040704744
:103FD00000F5000C5FEA4C0C48BF7047B0F1C040E0
:103FE00000F073B890EA010F0CEAD11348BF42F415
:103FF0008072624538BF634504D280EA010000F058
:104000000040704710B500F01AF800BF8900013E6B
:1040100000F007B800F009B85FEA410C5FEA1C6CD9
:1040200008D080EA010000F050B85FEA400C5FEA77
:104030001C6CF6D14FF00040A0F5800070470EF1E7
:10404000020E2EF0030E5EF8044B244204D44FEA15
:104050004102B2F17F4F11D84FEA4003B3F17F4FD5
:104060000CD80ED14FEAD07CB2F17F4F0CEB4C0C48
:104070000CF1020C08BF4CEBD17C04E04FF0080CB3
:1040800001E04FEAD17C0CEB4C0324FA03F404F07A
:104090000704B4F1040C06D20EEB840CBDE810400A
:1040A0004CF0010C6047DFE80CF0070802024FF00B
:1040B0000040A0F5800010BD0846420018BFD2F1B4
:1040C000807288BF00F0004010BDFF2141EAD0504F
:1040D000C005704751EA000C00F113801CF5000F79
:1040E00058BFBCF5000F01D48142704707D711F5C6
:1040F000000F58BF10F5000F15D481427047894258
:1041000070471CF5000F04D5BCF5000FF7D58842A9
:1041100070474FF0807C1CEB410F38BF1CEB400F09
:1041200001D28842704780EA010081EA000180EAFA
:104130000100FFF7F8BE80F0004090EA010F7FF524
:1041400038AD81F0004100F008B8000090EA010F9E
:1041500048BF81F000413FF52CAD421A04D882F0EF
:104160000042A0EB020011444FEAD0524FF07F4CC6
:104170001CEA410FA2EBD15318BF9CEA026F4AD050
:104180004FF0004C4CEA00204CEA012121FA03FCDC
:10419000B0EB0C0C0FD412F0FE0F36D05FEA4C00DF
:1041A0001DD5001240EBC25038BF70471CF03F0FC6
:1041B00018BF70470BE0A2F101025FEA1C2040EB40
:1041C000C25038BF70471CF07F0F18BF7047C3F153
:1041D0002003994014BF401E20F001007047800862
:1041E0004FEA122308BF7047B0FA80FCA2EB0C0222
:1041F000CCF1280C60FA0CF093EA122F04BF00EB0C
:10420000C25070474FEAC3707047130A5FEADC1070
:1042100008BF7047F6E79CEA026F04D010EA5C0F13
:1042200008BF0020704710B5FFF709FF40DFF63EDA
:1042300081F0004070470CF00F03092B08BF0820E5
:1042400000F059800A2B0BD0082B18BF704708BF0D
:104250001CF0400F0AD04FF000004FF000017047F3
:104260001CF0400F18BF4FF0004070471CF0100FBB
:1042700008D020F0704300F07F4242EAD3014FEAB9
:104280004370704700F0604021F07F4242EA000234
:1042900001F07F4040EA727070474FF0FF0C4CF421
:1042A000E06C1CEA11531CBF9CEA030C9445C2BF8E
:1042B000DA4201EB02517047002B0DD0BCF1000F28
:1042C0000FD0002A01F00041A4BF41F0E04141F0CD
:1042D0007F614FF00000704701F000414FF0000097
:1042E000704750EA01334FF09B0C18BF4CF0806CC4
:1042F0007FF4C0A870471CF4801F11D01CF4E02F7D
:1043000003D06FEACC31490070474FF04050EFF3D3
:10431000008222F0704242EA000282F30088704775
:104320004FF0000070470000000000000000002F68
:10433000000000000700070000147F147F14002411
:104340002A7F2A120062640813230036495522503E
:1043500000000503000000001C2241000000412273
:104360001C000014083E08140008083E080800005D
:1043700000A0600000080808080800006060000055
:10438000002010080402003E5149453E0000427FD3
:104390004000004261514946002141454B3100181F
:1043A00014127F10002745454539003C4A494930E1
:1043B000000171090503003649494936000649499B
:1043C000291E0000363600000000563600000008A6
:1043D0001422410000141414141400004122140883
:1043E00000020151090600324959513E007C121168
:1043F000127C007F49494936003E41414122007FFD
:104400004141221C007F49494941007F09090901B6
:10441000003E4149497A007F0808087F0000417F3B
:104420004100002040413F01007F08142241007FED
:1044300040404040007F020C027F007F0408107F54
:10444000003E4141413E007F09090906003E4151BD
:10445000215E007F0919294600464949493100017A
:10446000017F0101003F4040403F001F2040201FCE
:10447000003F4038403F0063140814630007087091
:10448000080700615149454300007F414100005544
:104490002A552A55000041417F0000040201020410
:1044A00000404040404000000102040000205454FD
:1044B0005478007F4844443800384444442000384D
:1044C0004444487F00385454541800087E090102BF
:1044D0000018A4A4A47C007F080404780000447D94
:1044E0004000004080847D00007F102844000000D0
:1044F000417F4000007C04180478007C08040478A4
:1045000000384444443800FC24242418001824248F
:1045100018FC007C0804040800485454542000048B
:104520003F444020003C4040207C001C2040201C98
:10453000003C4030403C004428102844001CA0A00F
:10454000A07C004464544C4414141414141400004B
:10455000000000000000000000000000000000005B
:1045600000F80000000000000033300000000010E0
:104570000C06100C0600000000000000000040C007
:104580007840C0784000043F04043F0404000070F9
:1045900088FC08300000001820FF211E0000F008F1
:1045A000F000E018000000211C031E211E0000F096
:1045B0000888700000001E212324192721101016DE
:1045C0000E000000000000000000000000000000DD
:1045D00000E018040200000000071820400000025C
:1045E0000418E000000000402018070000004040D0
:1045F00080F0804040000202010F01020200000032
:1046000000F0000000000101011F01010100000095
:1046100000000000000080B07000000000000000FA
:104620000000000000000001010101010101000083
:10463000000000000000003030000000000000001A
:10464000000080601804006018060100000000E00F
:1046500010080810E000000F102020100F000010BC
:1046600010F8000000000020203F20200000007013
:10467000080808887000003028242221300000300B
:104680000888884830000018202020110E00000003
:10469000C02010F8000000070424243F240000F884
:1046A0000888880808000019212020110E0000E069
:1046B000108888180000000F112020110E0000380B
:1046C0000808C83808000000003F00000000007023
:1046D000880808887000001C222121221C0000E0AC
:1046E00010080810E0000000312222110F00000025
:1046F00000C0C000000000000030300000000000DA
:104700000080000000000000806000000000000049
:1047100080402010080000010204081020004040E2
:104720004040404040000404040404040400000825
:1047300010204080000000201008040201000070DA
:1047400048080808F0000000003036010000C030C2
:10475000C828E810E0000718272423140B000000E5
:10476000C038E0000000203C23020227382008F86F
:10477000888888700000203F202020110E00C03063
:10478000080808083800071820202010080008F83A
:1047900008080810E000203F202020100F0008F833
:1047A0008888E8081000203F20202320180008F8FF
:1047B0008888E8081000203F200003000000C03077
:1047C00008080838000007182020221E020008F8F8
:1047D00008000008F808203F210101213F200008BF
:1047E00008F8080800000020203F202000000000FA
:1047F0000808F8080800C08080807F00000008F8E2
:1048000088C028180800203F20012638200008F81A
:10481000080000000000203F20202020300008F881
:10482000F800F8F80800203F003F003F200008F89B
:1048300030C00008F808203F200007183F00E010B3
:1048400008080810E0000F10202020100F0008F8C2
:1048500008080808F000203F210101010000E010D5
:1048600008080810E0000F18242438504F0008F8FA
:10487000888888887000203F2000030C302000705A
:104880008808080838000038202121221C00180858
:1048900008F8080818000000203F2000000008F871
:1048A00008000008F808001F202020201F000878BA
:1048B000880000C83808000007380E010000F8081A
:1048C00000F80008F800033C0700073C0300081844
:1048D00068808068180820302C03032C30200838AA
:1048E000C800C83808000000203F20000000100861
:1048F0000808C838080020382621202018000000A9
:1049000000FE020202000000007F40404000000C58
:1049100030C000000000000000010638C0000002A6
:104920000202FE000000004040407F000000000046
:104930000402020204000000000000000000000069
:104940000000000000008080808080808080000265
:104950000204000000000000000000000000000051
:104960008080808000000019242222223F2008F845
:10497000008080000000003F112020110E00000088
:10498000008080800000000E112020201100000017
:1049900000808088F800000E112020103F200000C9
:1049A000808080800000001F2222222213000080CD
:1049B00080F0888888180020203F20200000000018
:1049C000808080808000006B94949493600008F84D
:1049D000008080800000203F210000203F200080D8
:1049E0009898000000000020203F202000000000D8
:1049F00000809898000000C08080807F000008F848
:104A0000000080808000203F24022D30200000081C
:104A100008F8000000000020203F202000008080D7
:104A2000808080808000203F20003F20003F8080E9
:104A3000008080800000203F210000203F200000F7
:104A4000808080800000001F202020201F008080A8
:104A500000808000000080FFA12020110E000000D7
:104A6000008080808000000E112020A0FF808080C8
:104A700080008080800020203F2120000100000075
:104A8000808080808000003324242424190000804A
:104A900080E0808000000000001F20200000808057
:104AA000000000808000001F202020103F20808018
:104AB00080000080808000010E30080601008080A8
:104AC0000080008080800F300C030C300F000080CD
:104AD0008000808080000020312E0E3120008080F8
:104AE00080000080808080818E7018060100008028
:104AF0008080808080000021302C22213000000046
:104B00000000807C020200000000003F40400000E6
:104B10000000FF00000000000000FF000000000295
:104B2000027C800000000040403F000000000006C2
:104B30000101020204040000000000000000000067
:104B40004FBB610567ACDD3F182D4454FB21E93FA5
:104B50009BF681D20B73EF3F182D4454FB21F93F94
:104B6000E2652F227F2B7A3C075C143326A6813C1A
:104B7000BDCBF07A8807703C075C143326A6913CC5
:104B8000C4EB98999999C9BF711623FEC671BCBF31
:104B90006D9A74AFF2B0B3BF9AFDDE522DDEADBF99
:104BA0002F6C6A2C44B4A2BF0D5555555555D53FB1
:104BB000FF8300922449C23F6E204CC5CD45B73FCC
:104BC000513DD0A0660DB13FEB0D76244B7BA93F44
:104BD00011DA22E33AAD903F00000000000000002F
:104BE000004C00080000002010040000280100080C
:104BF000804D000810040020E00600008401000839
:104C0000011A1BF010012AFF050215F01B0F040109
:104C10002AFF0502130F18094040405F555555758E
:104C2000041A5F0C091121080C11200F0949897918
:104C30000909090F201F112FFE02424ACA4A030424
:104C4000134202FE000E14FF40504C4340404F50B0
:104C5000505C40FF1BF888012AFF050215F81B1F56
:104C600008012A7F200B109F80E23B80820100090F
:104C700016E2A2928A86828080041840807F1724E0
:104C800024A4FEA3221B22CCAA011415080601FFAE
:104C90002B0104010511FF0202025808101010FF39
:104CA000109008C3021108080F100444827F01808D
:104CB0008040432C10284681A018094040484848AD
:104CC000C8784F06051548484040000915031212E0
:104CD0002222528A063C106080BA19040B11C0309F
:104CE000FB1E404043407F061C7F424106094FC0E7
:104CF0002941080B1110D030FF30D0121C10101FAA
:104D00003D080402019E0D1101020408211116FE46
:104D1000222222FE0712FE828292A29E100880604A
:104D20001F0242827F0F11FF402F102C4380110081
:104D30000B1490884C57A42454548C8418080101F7
:104D40008042221A07441D423E01018AF9E1000D0A
:104D500014E4242CB4252624B42C24E404180AFFDB
:104D600002011E1212121E4186012C034CB4422D68
:104D700001020304040009000607080902040608EA
:04000005080000ED02
:00000001FF
