:020000040800F2
:10000000E8120020D5010008D9010008DB01000832
:10001000DD010008DF010008E10100080000000028
:10002000000000000000000000000000E3010008E4
:10003000E501000800000000E7010008E9010008F0
:10004000EB010008EB010008EB010008EB010008E0
:10005000EB010008EB010008EB010008EB010008D0
:10006000EB010008EB010008EB010008EB010008C0
:10007000EB010008EB010008EB010008EB010008B0
:10008000EB010008EB010008EB010008EB010008A0
:10009000EB010008EB010008EB010008EB01000890
:1000A000EB0100081B230008EB010008EB0100082E
:1000B000BD130008EB010008EB010008EB0100088C
:1000C000EB010008EB010008EB010008EB01000860
:1000D000EB0100082B090008BB090008EB01000830
:1000E000EB010008EB010008EB01000800F002F84A
:1000F00000F05AF80AA090E8000C82448344AAF168
:100100000107DA4501D100F04FF8AFF2090EBAE865
:100110000F0013F0010F18BFFB1A43F0010318473B
:10012000B84F0000D84F00000A444FF0000C10F800
:10013000013B13F0070408BF10F8014B1D1108BF65
:1001400010F8015B641E05D010F8016B641E01F805
:10015000016BF9D113F0080F1EBF10F8014BAD1C55
:100160000C1B09D16D1E58BF01F801CBFAD505E073
:1001700014F8016B01F8016B6D1EF9D59142D6D3CD
:10018000704700000023002400250026103A28BFF5
:1001900078C1FBD8520728BF30C148BF0B607047F9
:1001A0001FB51FBD10B510BD03F090F81146FFF745
:1001B000F7FF00F02BF803F0AEF803B4FFF7F2FFFF
:1001C00003BC00F0B9FA000030BF72B662B680F32B
:1001D0000888704708480047FEE7FEE7FEE7FEE7AD
:1001E000FEE7FEE7FEE7FEE7FEE7FEE70348044919
:1001F000044A054B70470000ED000008E80C0020A1
:10020000E8120020E80E0020E80E0020092000F08F
:100210003AFA482000F0DAF84FF49641482000F00E
:10022000A4FA4FF49641482000F00AFB022000F0A7
:1002300015FA012000F012FA022000F025F900F072
:1002400053FC002141F61F4001F01CF94FF43471BA
:1002500040F2CF7001F08CF900F056FE002002F061
:1002600036FB00F0E5FE0C234AA20321192000F022
:10027000FDFD0C2349A204211B2000F0F7FD4FF4E3
:100280007A7000F0DBF800BF01F046FC0028FBD1DB
:1002900002F01DFB0C233FA20321192000F0E6FD14
:1002A0000C2340A20421052000F0E0FD4FF4FA7079
:1002B00000F0C4F8002002F00AFB00F0E3FB01F0BC
:1002C000F8F904223B493C4802F0E2FB3948C08877
:1002D000562819D13749888804F062F8064637490C
:1002E00003F048FF044633494988324A128802EB3A
:1002F000820201EB420004F03BF80546214603F080
:10030000CBFE2F49086034E056202A49C8802B498B
:100310002B48006804F08CF8044603F0EDFF6421DC
:1003200090FBF1F02349088024492548006804F037
:100330007FF8044603F0E0FF642190FBF1F201FB3B
:1003400012000A2190FBF1F01A4948801B491C4811
:10035000006804F06DF8044603F0CEFF0A2190FB1C
:10036000F1F201FB1200134988800722124802F0C3
:10037000A0FB13480068134908601148006812493F
:10038000086041F61F41632000F0D2FF01E002F057
:1003900043F9FCE74D50553630353000696E6974CD
:1003A0002E2E2E00696E69742073756363657373F6
:1003B0002121210000000020000001080000204150
:1003C000A8030020A4030020BC0300204FF0E0217C
:1003D000096921F004014FF0E0221161C21700EB1E
:1003E0005272C2F3C702234B1A701946097801EB07
:1003F0004102C2EBC1114FF6FF7202EAC1011E4A6F
:100400001180704701461B4A12784A434FF0E0239F
:100410005A6100229A6101221A6100BF4FF0E02266
:10042000106900F001021AB100F48032002AF5D000
:1004300000224FF0E0231A619A61704701460E4A8C
:1004400012884A434FF0E0235A6100229A61012248
:100450001A6100BF4FF0E022106900F001021AB1EA
:1004600000F48032002AF5D000224FF0E0231A6118
:100470009A617047080000200A000020A34A0A4041
:100480000243A34B1A6070470146072323EA010287
:1004900012029F4B1B1D18684FF6FF0318409D4B1F
:1004A000184310439A4B1B1D186070472DE9F0410B
:1004B0000746884614461D462846FFF7E5FFC5F166
:1004C000040007FA00F60F20284100EA080006435E
:1004D00006F00F06E21704EBD2625211920002F10D
:1004E000E022D2F800212146E31704EBD3635B112D
:1004F000A4EB431C012303FA0CF31A432046E31731
:1005000004EBD3635B119B0003F1E023C3F80021EC
:100510008148005D40EA06107F490855BDE8F0813A
:1005200070B504460B46CE1701EB9676C6F38700EE
:10053000CE1701EB9676B610A1EB8606B606350E01
:10054000764B9B6943F00103744EB3614FEAB633B7
:1005500053F820300F26AE40B343714E46F820309A
:10056000334653F8203004FA05F61E436C4B43F82B
:1005700020606C4B1B6801268E403343694E33600C
:1005800002F0010343B1674B0C331B6801268E4018
:100590003343644E0C36336002F0020343B1614BC7
:1005A00008331E6801238B401E435E4B08331E60D8
:1005B00070BD00B5002059490861C8601420486129
:1005C00000208861C8610846006840F001000860AA
:1005D0000846406854490840504948600846006849
:1005E000524908404D4908600846006820F48020C0
:1005F00008600846406820F4FE00486000208860DB
:1006000000214FF00060FFF739FF00BD10B54048F2
:100610000830006840F004003D49083108603F4858
:10062000C06940F080503D49C8614148406840F48D
:1006300080703F4948600846006840F00400086048
:100640000846006840F002000860FFF7BDFD10BDDD
:100650003048001D2E49091D0860704701464906B3
:100660002E4A926942F001022C4B9A612C4A083AB8
:10067000526822F0E0622A4B083B5A601A465268E0
:100680000A435A60704730B504460025FFF791FFD2
:100690002248006840F480302049086000BF1F48AD
:1006A0000068400C0028FAD04FF480601B49486075
:1006B000A01EC4B20846406840EA8440486008462C
:1006C000406840F4803048601A48006840F03200CA
:1006D000184908601148006840F080700F490860B0
:1006E00000BF0E480068400E0028FAD00B48406852
:1006F00040F002000949486005E008484068C0F33E
:10070000870505F00305022DF7D130BD80FFFF1FDF
:1007100008ED00E00000FA0500E400E000100240EF
:1007200008000140000401400000FFF8FFFFF6FE52
:100730000070004000200240014600BF7047C649DB
:10074000088000BFC449091F098801F04001002941
:10075000F8D07047C149088000BFC049091F098807
:1007600001F040010029F8D070472DE9F05F0546FF
:100770000E46300103F014FE8146B94905FB01F035
:1007800003F00EFE8246494603F0F4FC0746384665
:1007900003F0CEFD84B2204603F002FE83463946C4
:1007A00003F043FF82464FF0834103F041FE814650
:1007B00003F0BEFD80464FF6FF7000EA041404EB20
:1007C000080084B2A748806940F00400A549886108
:1007D0000846806940F480408861A348006820F49E
:1007E0007F60A14908600846006840F40B6008601B
:1007F0009C48C06840F480409A49C8600846C06878
:1008000020F48040C8609448001D0480001D0088CA
:1008100042F20C01084390490831088008460088DC
:1008200040F4807008800846008840F0200008806E
:100830000223252201210846FFF738FEBDE8F09F7C
:100840002DE9F05F05460E46300103F0A9FD814613
:10085000834905FB01F003F0A3FD8246494603F0FE
:1008600089FC0746384603F063FD84B2204603F056
:1008700097FD8346394603F0D8FE82464FF0834108
:1008800003F0D6FD814603F053FD80464FF6FF701E
:1008900000EA041404EB080084B27248806940F056
:1008A0000400704988610846C06940F40030C8619E
:1008B0006D48001F006820F47F406B49091F0860E5
:1008C0000846006840F40B4008606748083000683C
:1008D00040F008006449083108606248006940F44B
:1008E0000030604908610846006920F40030086162
:1008F0005A48001D0480001D008842F20C01084384
:100900005649083108800846008840F48070088005
:100910000846008840F0200008800223262201219A
:100920000846FFF7C3FDBDE8F09F00B50022002395
:100930004948001F008800F0200000283CD04648AD
:100940000088C2B20A2A03D100204849088033E057
:100950000D2A21D14548008840F4004043490880D1
:1009600043490878FFF7EBFE41494878FFF7E7FE77
:100970003F48007840B23F4908703D48407840B257
:100980003D490870002304E000203949C854581C30
:10099000C3B2142BF8DB0FE03448008800F40040A9
:1009A00050B932480088C0F30D0031490A542F482D
:1009B0000088401C2D49088000BD00B52748001F55
:1009C000008800F02000002845D024480088C2B2EA
:1009D0002A48008800F4004000283CD127480088BD
:1009E00000F48040E8B1A52A03D000202349088004
:1009F00031E02248008840F4004020490880204827
:100A0000007840B21B4908701D48407840B21A492E
:100A1000087000201949088019490878FFF79AFEE4
:100A200019E05A2A06D11548008840F4804013493D
:100A3000088010E011480088C0F30D0010490A54E6
:100A40000E480088401C0D490880084600881E2872
:100A500001DD0020088000BD04380140044400404E
:100A600040420F0000100240040801401000002026
:100A7000F8030020130000201200002014000020C2
:100A80000C0400201348806940F00400114988617B
:100A90001148006820F00F000F4908600846006800
:100AA00040F002000860704718B901210B4A11603C
:100AB0000FE00B490968491C094A1160814208D1BD
:100AC00006490968C943074AC2F8A0110021044A2F
:100AD000116070470010024004080140A00121424B
:100AE00018000020000021421C48806940F00800E6
:100AF0001A4988611A48006820F07F401849086048
:100B00000846006840F00840086015480830006852
:100B100040F44040124908310860704711480068AD
:100B2000012805D10F48001D006808B90120704751
:100B30000C48006830B90B48001D0068012801D13D
:100B40000220F4E70748006828B90648001D00683D
:100B500008B90320EBE70020E9E70000001002409D
:100B6000040C01403881214210B54FF48051FE48F9
:100B700002F02FF94FF40051FB4802F02AF94FF42C
:100B80000051F94802F027F94FF48051F64802F07D
:100B900022F910BD10B54FF48051F34802F019F955
:100BA0004FF40051F04802F016F94FF40051EE48AE
:100BB00002F00FF910BD10B54FF48051EA4802F071
:100BC00008F94FF48051E84802F005F910BD2DE90D
:100BD000F04105462C464FF48051E34802F0FBF803
:100BE00000261CE0274607F08007802F04D1B901BA
:100BF000DD4802F0EEF804E04FF40051DA4802F06C
:100C0000EAF86006040E4FF48051D74802F0E1F88C
:100C10004FF48051D44802F0DEF8701CC6B2082EA2
:100C2000E0DBBDE8F08110B50446FFF79DFF7820BA
:100C3000FFF7CDFFFFF7BFFF0020FFF7C8FFFFF76B
:100C4000BAFF2046FFF7C3FFFFF7B5FFFFF7A2FF8C
:100C500010BD10B50446FFF787FF7820FFF7B7FFF8
:100C6000FFF7A9FF4020FFF7B2FFFFF7A4FF2046E0
:100C7000FFF7ADFFFFF79FFFFFF78CFF10BD70B5CB
:100C800004460D461DB1E0B2FFF7E3FF02E0E0B21B
:100C9000FFF7C9FF70BD70B504460D4605F1B00001
:100CA0000021FFF7ECFF102141EA14100021FFF7AB
:100CB000E6FF04F00F000021FFF7E1FF70BD10B563
:100CC00000218D20FFF7DBFF00211420FFF7D7FF65
:100CD0000021AF20FFF7D3FF10BD10B500218D20FC
:100CE000FFF7CDFF00211020FFF7C9FF0021AE2044
:100CF000FFF7C5FF10BD70B5002418E004F1B00087
:100D00000021FFF7BCFF00210846FFF7B8FF0021D4
:100D10001020FFF7B4FF002505E001210846FFF78A
:100D2000AEFF681CC5B2802DF7DB601CC4B2082C76
:100D3000E4DB70BD2DE9F04707460E469046994624
:100D400000250024A8F12000C5B27F2F02DD002776
:100D5000B01CC6B2B9F1100F24D131463846FFF7A6
:100D60009AFF002408E004EB0511804A505C012141
:100D7000FFF785FF601CC4B2082CF4DB701CC1B205
:100D80003846FFF788FF002409E004EB051108311D
:100D9000764A505C0121FFF772FF601CC4B2082C38
:100DA000F3DB12E031463846FFF775FF00240AE016
:100DB00005EB45016E4A02EB4101085D0121FFF799
:100DC0005EFF601CC4B2062CF2DBBDE8F08710B5F4
:100DD0000246012000E050430B1EA1F10104E1B2E4
:100DE000F9D110BD2DE9FF5F074691461E460E9DC5
:100DF0004FF0000A002435E0301B401EC1B20A202B
:100E0000FFF7E5FFB9FBF0F00A21B0FBF1F201FBBF
:100E10001208BAF1000F14D1701EA04211DDB8F112
:100E2000000F0CD1AB4605EBDB71491001FB0471DF
:100E3000C8B22B4620220199FFF77CFF10E04FF04B
:100E4000010AAB4605EBDB71491001FB0471C8B226
:100E500008F13001CAB22B460199FFF76BFF00BFC2
:100E6000601CC4B2B442C7DBBDE8FF9F2DE9F0416E
:100E700004460F461546984600260FE0AA5D4346F5
:100E800039462046FFF756FF04F10800C4B2782C1B
:100E900002DD0024B81CC7B2701CC6B2A85D0028D1
:100EA000ECD1BDE8F0812DE9F04180460E461546B3
:100EB000002731464046FFF7EEFE00240AE02D4AA7
:100EC00002EB8511085D0121FFF7D9FE781CC7B23E
:100ED000601CC4B2102CF2DB701CC1B24046FFF79C
:100EE000DAFE00240CE06900491C224A02EB4111A1
:100EF000085D0121FFF7C3FE781CC7B2601CC4B2B5
:100F0000102CF0DBBDE8F08108B50121082002F0CB
:100F10006FF94FF44050ADF8000010208DF8030039
:100F200003208DF8020069460F4801F0A5FE4FF43A
:100F300040510D4801F04DFF4FF44870FFF77EFA25
:100F40000021AE20FFF79BFE00210846FFF797FE29
:100F500000211020FFF793FE00214020FFF78FFEB5
:100F60000021B02008E00000000C0140424A0008C7
:100F70001A4800081C000020FFF781FE0021812094
:100F8000FFF77DFE0021FF20FFF779FE0021A12061
:100F9000FFF775FE0021A620FFF771FE0021A820B3
:100FA000FFF76DFE00213F20FFF769FE0021C820FA
:100FB000FFF765FE0021D320FFF761FE0021084600
:100FC000FFF75DFE0021D520FFF759FE00218020AC
:100FD000FFF755FE0021D820FFF751FE0021052024
:100FE000FFF74DFE0021D920FFF749FE0021F12037
:100FF000FFF745FE0021DA20FFF741FE0021122015
:10100000FFF73DFE0021DB20FFF739FE00213020F5
:10101000FFF735FE00218D20FFF731FE002114205F
:10102000FFF72DFE0021AF20FFF729FE08BD0000CD
:10103000B948806940F00400B7498861B748006842
:1010400020F47020B5490860B348806940F400700E
:10105000B14988610846C06840F40070C86008461D
:10106000C06820F40070C8600846406820F4404022
:1010700048600846406840F400404860A84800685E
:10108000A8490840A6490860084600680860084664
:10109000006820F480700860081D006820F00200DD
:1010A000091D08600846006820F4602008600846B2
:1010B000006840F4602008600846006840F4801032
:1010C00008600846006820F40060086094482830F2
:1010D000006820F4700092492831086008460068D2
:1010E000002008608E480C30006820F070608C4949
:1010F0000C3108600846006840F4E0100860884839
:10110000001D006840F001008549091D086008467F
:10111000006840F00800086000BF8148001D0068BA
:1011200000F008000028F8D17D48001D006840F05C
:1011300004007B49091D086000BF7948001D006854
:1011400000F004000028F8D17047014674483030A0
:10115000006820F01F00724A3032106010460068AC
:10116000084310606E48001D006840F480006C4A1F
:10117000121D106000BF6A48001F006800F00200E6
:101180000028F8D066484830006880B270472DE9E2
:10119000F84F0420FFF7D9FF009003F001F98346D0
:1011A00002F04EFF80464FF066325F4B02F054FD76
:1011B000064600225D4B02F0DFFB044602F0FAFA1D
:1011C00082465046BDE8F88F10B55348806940F01C
:1011D0000400514988615148006820F070404F492F
:1011E00008604D48806940F400704B4988610846AA
:1011F000C06840F40070C8600846C06820F4007001
:10120000C8600846406820F440404860084640688E
:1012100040F4004048604248006842490840404964
:1012200008600846006808600846006820F480707E
:101230000860081D006820F00200091D08600846CB
:10124000006820F4602008600846006840F46020D0
:1012500008600846006840F480100860084600688E
:1012600020F4006008602E482830006820F47000E8
:101270002B4928310860084600680020086028488B
:101280000C30006820F0704025490C310860084699
:10129000006840F4600008602148001D006840F0CC
:1012A00001001F49091D08600846006840F0080059
:1012B000086000BF1A48001D006800F00800002800
:1012C000F8D11748001D006840F004001449091DBA
:1012D000086000BF1248001D006800F004000028EC
:1012E000F8D10120FFF7AAF810BD2DE9F04107461B
:1012F0000C460025002608E03846FFF726FF054487
:10130000C820FFF77FF8701CC6B2A642F4DBB5FB1D
:10131000F4F080B2BDE8F081001002400008014006
:1013200004240140FFFFF00066661A400000B04050
:1013300070B505460C463648806940F40060344973
:10134000886134480580001F0480324820380088B6
:1013500040F001002F49203908800846008840F0FD
:10136000400008802B482C38008840F001002949B3
:101370002C3908800223192219461846FFF796F8DF
:1013800070BD70B505460C462148C06940F00100AB
:101390001F49C861880485850485808940F0010063
:1013A000890488810846008840F0010008800223F3
:1013B0001C2219461846FFF779F870BD4FF080409F
:1013C000008A00F00100C8B113480068401C1249AF
:1013D00008600846006811490978884203DD00204A
:1013E0000F49086002E001200D4908600A480068C2
:1013F000B0F5FA6F02DD0020074908604FF0804029
:10140000008A20F001004FF0804108827047000000
:10141000001002402C2C01409C030020A00300205F
:10142000840121426D48806940F004006B49886165
:101430000846806940F0080088616948006820F02B
:101440007F60674908600846006840F008700860DF
:101450006448006820F0F0006249086008460068AF
:1014600040F020000860081F006820F0F000091F0D
:1014700008600846006840F02000086001205A49D2
:101480000860704700B503460A46FFF7CBFF534894
:10149000C06940F002005149C8610846806940F0C7
:1014A000080088610846806940F0040088614D4862
:1014B000001F006820F00F004A49091F0860084615
:1014C000006840F00B0008604548006820F070405C
:1014D000434908600846006840F0304008604348CF
:1014E0000380001F028041481038008840F4C0404B
:1014F0003E49103908800846008840F060000880A6
:10150000081F008840F4E040091F08800846008852
:1015100040F400600880081D008840F40060091D48
:1015200008800846008840F008000880081D0088F0
:1015300040F01000091D08800846008840F48050E3
:1015400008800846008840F48070088027481830DA
:10155000008840F400402549183108808020234944
:101560002C3908800846008840F00100088000BD42
:101570001A4AD26942F00102184BDA611A4692699E
:1015800042F004029A61164A126822F0F002144BEB
:101590001A601A46126842F0B0021A60DA049085A6
:1015A0001185128B42F4E042DB041A831A46128B37
:1015B00042F400621A831A46128C42F010021A8416
:1015C0000B4A128842F40042A3F8442080221A8079
:1015D000D205128842F001021A80704700100240C2
:1015E00000080140040C0140A08121422C0400406D
:1015F0004400004010B56348C06940F001006149F3
:10160000C8610846806940F0040088615E4800684F
:1016100020F0FF005C4908600846006840F0440084
:101620000860C804808940F00100C9048881084628
:10163000808940F04000888101231C220321184644
:10164000FEF734FF00204FF0804108854FF6FF7011
:1016500088850846008820F4407008800846008885
:1016600020F0600008800846008B40F001000883ED
:101670000846008B40F4807008830846008C20F0F8
:10168000020008840846008C20F0200008840846E8
:10169000008B40F0300008830846008940F00300CA
:1016A0000881002088840846008840F001000880F6
:1016B00010BD3448C06940F004003249C861084692
:1016C000806940F0080088613048006820F07F4061
:1016D0002E4908600846006840F0884008600020F5
:1016E0002B4908804FF6FE70091D088028481038E5
:1016F000008840F00100264910390880084600881B
:1017000040F4807008802248083800882049083951
:1017100008800846008808801D482038008840F06E
:1017200003001B492039088019482838008840F0F8
:10173000010017492839088070470146022904D062
:1017400003290BD0042919D10FE04FF08042928C6D
:1017500010B200224FF080439A8411E00D4A1288A3
:1017600010B200220B4B1A800AE0094A121F12889D
:1017700010B20022064B1B1F1A8001E0002000BFA0
:1017800000BF70470010024000080140000C0140FB
:10179000280800402404004010B50220FEF732FE65
:1017A00010BD08B50121082001F022FD1820ADF878
:1017B000000010208DF8030003208DF80200694618
:1017C000D24801F059FA1821D04801F002FB08BDB7
:1017D00010B5CE48006820F47040CC490860084637
:1017E000006840F4405008600120C9490860C949B8
:1017F000C1F89001FFF7D0FF0020C5490860FFF74E
:10180000CBFF0020C349C1F8900110BD10B5BF48FF
:10181000006820F47040BD4908600846006840F444
:10182000405008600020BA49091D0860B949C1F854
:101830008C01FFF7B1FF0120B549091D0860B549CA
:10184000C1F88C01FFF7A8FF10BD10B50024AF4808
:10185000006820F47040AD4908600846006840F414
:10186000004008600120AA490860FFF795FF0120A9
:10187000A849C1F89001FFF78FFF07E0601CC4B2D0
:10188000FA2C03DDFFF7C2FF012010BDA04880380D
:1018900000680028F2D19E49091D086000BFF4E7E6
:1018A00010B500209A49091D08609848006820F486
:1018B0007040964908600846006840F4405008604F
:1018C00000209449C1F88C01FFF766FF0120904980
:1018D000091D0860FFF760FF00208E49C1F89001E4
:1018E00010BD10B500208A49091D086087480068AE
:1018F00020F47040854908600846006840F4405074
:10190000086001208349C1F88C01FFF745FF0120E1
:101910007F49091D0860FFF73FFF00207D49C1F89E
:10192000900110BD70B504467848006820F47040FE
:10193000764908600846006840F44050086000207E
:101940007349091D0860002512E0E009704908602C
:101950006006040E01206F49C1F89001FFF71CFFDB
:1019600000206B49091D0860FFF716FF681CC5B20F
:10197000082DEADB70BD70B5054600246348006899
:1019800020F47040614908600846006840F4004057
:101990000860002615E000205D49091D0860FFF77A
:1019A000FBFE01205B49C1F890016006040E584817
:1019B0008038006808B1601CC4B2FFF7EDFE701CEF
:1019C000C6B2082EE7DB15B9FFF78BFF01E0FFF782
:1019D00067FF204670BD70B504460D461646FFF7FA
:1019E000F7FE002141EA4401C8B2FFF79BFFFFF771
:1019F0002CFF2846FFF796FFFFF727FF3046FFF73B
:101A000091FFFFF722FFFFF701FF002070BD70B5C7
:101A100004460D46FFF7DCFE002141EA4401C8B24E
:101A2000FFF780FFFFF711FF2846FFF77BFFFFF767
:101A30000CFFFFF7CDFE012101EB4401C8B2FFF717
:101A400071FFFFF702FF0020FFF795FF0646FFF743
:101A5000DDFE304670BD2DE9F04105460E461746C5
:101A60009846FFF7B5FE002141EA4501C8B2FFF7ED
:101A700059FFFFF7EAFE3046FFF754FFFFF7E5FE98
:101A8000002407E018F80400FFF74CFFFFF7DDFE25
:101A9000601CC4B2BC42F5DBFFF7B8FE0020BDE815
:101AA000F0812DE9F04106460F4614461D46FFF72A
:101AB0008FFE002141EA4601C8B2FFF733FFFFF76E
:101AC000C4FE3846FFF72EFFFFF7BFFEFFF780FE8C
:101AD000012101EB4601C8B2FFF724FFFFF7B5FE75
:101AE0000DE0012C04D10020FFF745FF287003E032
:101AF0000120FFF740FF2870601EC4B26D1C002C4F
:101B0000EFD1FFF783FE0020BDE8F081000C01401B
:101B10008C8121420080214210B5FFF742FE8022D5
:101B20006B216820FFF757FF6420FEF787FC002237
:101B30006B216820FFF74FFF012219216820FFF772
:101B40004AFF04221A216820FFF745FF10221B21BB
:101B50006820FFF740FF09221C216820FFF73BFFA8
:101B600075216820FFF753FF0446682C04D100223A
:101B70006C21FFF730FF01E0012010BD2D20FEF7A2
:101B80005DFC0020F9E71FB502AB06223B2168206F
:101B9000FFF787FF6B46062243216820FFF781FF8E
:101BA0009DF809009DF8081040EA012000B2914913
:101BB00008809DF80B009DF80A1040EA012000B251
:101BC0008C4948809DF80D009DF80C1040EA0120DA
:101BD00000B2884988809DF801009DF8001040EA15
:101BE000012000B2834988869DF803009DF8021009
:101BF00040EA012001B27F48C1869DF805009DF8AA
:101C0000041040EA012001B27A4801870146B1F987
:101C100000100246B2F92020881A02F0A9FB75498B
:101C20008862B1F90220B1F92210501A02F0A0FB2B
:101C30007049C862B1F93420B1F95410501A02F059
:101C400097FB6C49C865B1F93620B1F95610501AA6
:101C500002F08EFB0146674801660146B1F9382063
:101C6000B1F95810501A02F083FB014661484166F1
:101C70001FBD30B58BB0002500200690079008905E
:101C8000039004900590009001900290AAE0C82D66
:101C90005CDAFFF778FF5749B1F93410039808442C
:101CA00003905448B0F93600049908440490514810
:101CB000B0F938000599084405904E49B1F9001073
:101CC0000098084400904B49B1F90210019808446B
:101CD00001904849B1F90410029808440290BDF9F6
:101CE0002410444AB2F93420881A002801DB014646
:101CF00000E04142069A11440691BDF926203D4973
:101D0000B1F93610501A002801DB014600E04142CB
:101D1000079A11440791BDF928203649B1F93810C6
:101D2000501A002801DB014600E04142089A1144A4
:101D300008913048808EADF824002E48C08EADF852
:101D400026002C48008FADF8280049E006983C2872
:101D500005DA07983C2802DA08983C2810DB0025B1
:101D600000240AE0002006A941F8240003A941F854
:101D700024004DF82400601CC4B2032CF2DB2FE0D9
:101D8000C821009890FBF1F000B21A490884C821DC
:101D9000019890FBF1F001B216484184C8210298E5
:101DA00090FBF1F001B213488184C821039890FBA5
:101DB000F1F001B20F48A0F85410C821049890FB2C
:101DC000F1F001B20B48A0F85610C821059890FB1D
:101DD000F1F001B20748A0F8581001200649087038
:101DE000681CC5B20448007800283FF450AF0BB01F
:101DF00030BD000020040020A10300202DE9F04F99
:101E000089B083468A46504602F01AF98046FE4A57
:101E1000FE4B01F021FF06460F46FD48006802F028
:101E20000FF932463B46CDE9000101F0F5FC0446CE
:101E3000F84AF94B01F010FFCDE90401584602F0D1
:101E4000FFF80446F54AF64B01F006FFCDE9020122
:101E5000DDE9042301F0E0FCCDE9060101F0AAFC74
:101E6000EB49086009B0BDE8F08F2DE9F04F8DB067
:101E70000AAB06223B216820FFF713FE08AB0622BF
:101E800043216820FFF70DFE9DF829009DF82810DA
:101E900040EA012000B2E34908809DF82B009DF83C
:101EA0002A1040EA012000B2DE4948809DF82D004A
:101EB0009DF82C1040EA012000B2DA4988809DF894
:101EC00021009DF8201040EA012000B2D549888603
:101ED0009DF823009DF8221040EA012001B2D1486C
:101EE000C1869DF825009DF8241040EA012001B22A
:101EF000CC4801870146B1F9360002F039FA059065
:101F0000C849B1F9380002F033FA0490C549B1F973
:101F1000000002F02DFA0790C249B1F9040002F066
:101F200027FA06904FF08E41059802F04DFB05D23E
:101F30004FF08F41059802F083FB05904FF08E41E2
:101F4000049802F041FB05D24FF08F41049802F053
:101F500077FB04904FF08E41079802F035FB05D2D5
:101F60004FF08F41079802F06BFB07904FF08E41C6
:101F7000069802F029FB05D24FF08F41069802F037
:101F80005FFB0690069802F05BF8CDE90201079826
:101F900002F056F8CDE90001DDE9022301F04AFB29
:101FA00080460022A04B01F057FE06469F4AA04BF8
:101FB00001F0E2FC044601F0FDFB8346059802F0C7
:101FC0003FF806464FF066329A4B01F0D5FC0446C6
:101FD00001F0F0FB05909349B1F9340002F0C8F923
:101FE00082469049B1F9020002F0C2F983464FF0EF
:101FF0008E41504602F0E8FA05D24FF08F4150462C
:1020000002F01EFB82464FF08E41584602F0DCFA89
:1020100005D24FF08F41584602F012FB83468AF0FA
:10202000004085490860584602F00AF8CDE90001F1
:10203000069802F005F80646DDE9002301F0FAFAF9
:102040000022794BCDE9020101F006FE0446774AF1
:10205000774B01F091FC804601F0ACFB07905046B5
:1020600001F0EEFF06464FF06632724B01F084FC41
:10207000044601F09FFB82468AF0004421460798FF
:10208000FFF7BCFE0DB0BDE8F08F0146002901DA74
:10209000484200E00846704700B503460A46002B58
:1020A00003DA00206549086002E001206349086006
:1020B0001846FFF7EAFF643061490880002A0BDA0E
:1020C0000120604908601046FFF7DFFFC0F5E150CE
:1020D0005B49091D088008E000205A490860104645
:1020E000FFF7D3FF5649091D088000BD41F6F421D2
:1020F0000846554A12684B429A4202DA4A42524B0B
:102100001A60514A12688A4201DD4F4A11604F4AF3
:10211000126843429A4202DA42424C4B1A604B4ADE
:102120001268824201DD494A106070472DE9F14F83
:1021300084B04748039047480290002001904648E9
:10214000006801F07DFF0646324A444B01F084FDF1
:10215000044601F02FFB40490860049801F064FD3B
:1021600080464FF066323E4B01F076FD04460D4648
:102170003948006801F064FF064622462B4601F00C
:102180004BFB824601F016FB3349086008460168A4
:102190003448006801F080FF324908603249314814
:1021A000006802F011FA02D22F482E4908602F4928
:1021B0002C48006802F008F902D22C48294908602E
:1021C0002B4801682448006802F03AFA0646019953
:1021D00002F02EF9044623480168029802F028F91B
:1021E00006461D480168039802F022F90746314669
:1021F00001F052FF0546214601F04EFF1D490860DF
:10220000154800681A4937E07B14AE47E17A743FFD
:10221000BC030020CDCCCCCCCCCCEC3F9A99999986
:102220009999B93F2004002000806640F1D4C8533A
:10223000FB21094066663040C0030020A481214292
:102240003804004094012142B0030020B403002070
:10225000000048420AD7A33CE0030020CCCCE43F76
:102260006666D63FD803002000409C4600409CC6CE
:10227000DC030020D40300200860BF48006802F09F
:102280003BF805B0BDE8F08F2DE9FF5F06460C4630
:10229000BA4F4FF000084FF08149B9480168304605
:1022A00002F0CEF90390B7480399006801F0F4FEFC
:1022B000B4490860B449B348006802F085F902D215
:1022C000B148B0490860B149AE48006802F07CF8F6
:1022D00002D2AE48AB490860AD4804604946006888
:1022E00002F0A6F80290A7480168404602F0A0F864
:1022F00001903846039902F09BF80090019901F093
:10230000CBFE8346029901F0C7FE824601F0F4FF3E
:102310000546284604B0BDE8F09F2DE9F0419D48F0
:10232000008800F0010000287CD09A48008820F046
:10233000010098490880FFF798FDFEF728FF9649AD
:1023400008600420FFF7F9F994490860944995481A
:10235000006802F075F90546294693480068FFF7C2
:1023600093FF924908608D480068FFF7DFFE9049AF
:10237000086090498C48006802F026F80DD28E491A
:102380008948006802F020F907D288480068884927
:10239000096808448949086002E00020874908600C
:1023A000FFF7A4FE864890F9000000EB8000C00013
:1023B00084490860844991F9000000EBD07149100C
:1023C0007D31C1F5FA614FF0804211877D48016887
:1023D0007A480068FFF760FEFEF7A0FB0446032C76
:1023E0007DD100210846FFF757FE02E0FEF796FB7D
:1023F0000446032CFAD0002000F069FA0C2373A2E3
:102400000A210520FEF732FD0C2372A204210A20C6
:10241000FEF72CFD4FF47A70FEF710F8002000F064
:1024200056FAA2E0A4E0FFF720FDFEF7B0FE5A49FD
:1024300008600420FFF781F958490860FEF76EFB39
:102440000446012C1CD16648006801F0F9FD0546E0
:10245000644A654B01F00AFD074601F0ABF960499B
:10246000086062495E48006801F0AEFF02D25F4832
:102470005B49086000F0D0F8C820FDF7DFFF6FE08F
:10248000022C1CD15648006801F0DAFD0546554A79
:10249000554B01F0C1F9074601F08CF9504908602D
:1024A00053494F48006802F08FF802D250484C4917
:1024B000086000F0B1F8C820FDF7C0FF50E0032C21
:1024C0004ED1002000F003FA0C234AA2032105207C
:1024D000FEF7CCFC0C234AA204210A2000E046E0CF
:1024E000FEF7C4FC49493E48006801F0A1FF0546DB
:1024F00001F002FF642190FBF1F045490880434957
:102500003748006801F094FF054601F0F5FE6421AC
:1025100090FBF1F201FB12000A2190FBF1F03C4923
:1025200048803A492E48006801F082FF054601F0D4
:10253000E3FE0A2190FBF1F201FB1200344988808E
:102540000422344800F0B5FA4FF47A70FDF776FFB4
:102550004FF47A70FDF772FF002000F0B8F905E043
:1025600000F05AF80520FDF769FF5CE700BF00BFE7
:102570000020BDE8F0810000D403002000803B442F
:10258000A4030020D00300200060EA460060EAC6F1
:10259000CC030020102C0140B8030020AC03002025
:1025A00000002042C0030020BC030020C403002020
:1025B000C80300200000F04200007042B003002079
:1025C00012000020B4030020130000205345545F84
:1025D00055500000456E746572696E672E2E2E0090
:1025E000A80300209A9999999999B93F00008C42C3
:1025F0000000DC42506172616D65746572730000A9
:10260000536176696E672E2E2E0000000000204177
:102610000000002000000108F8B50C23BCA2002136
:102620000846FEF723FCBB48006800280FDB0C239C
:10263000B9A200211420FEF719FC0C2003230090FE
:10264000B448002102681B20FEF7CCFB0FE00C23EE
:10265000B2A200211420FEF709FC0C2003230090F5
:10266000AC480068424200211B20FEF7BBFB0C2354
:10267000ABA201210020FEF7F9FBAC49AC48006891
:1026800001F0D6FE054601F037FE04460C20042377
:102690002246012100903C20FEF7A4FB0C23A5A2BA
:1026A00001215520FEF7E2FB0C23A3A202213C20CE
:1026B000FEF7DCFB0021A148006801F085FF13D87C
:1026C0000C2395A202215B20FEF7D0FB9B480068FB
:1026D00001F02EFE04460C20042322460221009025
:1026E0006220FEF77FFB15E00C238CA202215B2009
:1026F000FEF7BCFB9148006880F00045284601F0D9
:1027000017FE04460C20042322460221009062207A
:10271000FEF768FB0C238AA204210020FEF7A6FB2B
:1027200000218948006801F04FFF34D80C237AA2B9
:1027300004211E20FEF79AFB8348006801F0F8FD93
:1027400004460C2003232246042100902520FEF796
:1027500049FB0C237DA204213720FEF787FB7C492F
:102760007948006801F064FE054601F0C5FD0A21C4
:1027700090FBF1F201FB12040C20012322460421FC
:1027800000903C20FEF72EFB0C2372A20421442073
:10279000FEF76CFB39E00C2360A204211E20FEF73B
:1027A00065FB6948006880F00045284601F0C0FDDF
:1027B00004460C2003232246042100902520FEF726
:1027C00011FB0C2361A204213720FEF74FFB5E486A
:1027D000006880F000465E49304601F029FE05465B
:1027E00001F08AFD0A2190FBF1F201FB12040C209A
:1027F00001232246042100903C20FEF7F3FA0C232B
:1028000054A204214420FEF731FB0C2352A20521DF
:102810000020FEF72BFB534890F90000002810DB46
:102820000C233DA205215A20FEF720FB0C20032398
:1028300000904C4890F9002005216120FEF7D2FA63
:1028400010E00C2335A205215A20FEF70FFB0C20C7
:1028500003230090434890F9000042420521612083
:10286000FEF7C0FA0C2340A206210020FEF7FEFA74
:102870004048006801F05CFD04460C20022322461B
:10288000062100904D20FEF7ADFA0C232FA2062161
:102890005920FEF7EBFA2E493648006801F0C8FDD2
:1028A000054601F029FD0A2190FBF1F201FB12041B
:1028B0000C2001232246062100905E20FEF792FAAA
:1028C0000C2324A206216620FEF7D0FAF8BD70B5CD
:1028D0000646002418E004F1B0000021FEF7CFF90D
:1028E00000210846FEF7CBF900211020FEF7C7F9BA
:1028F000002505E001213046FEF7C1F9681CC5B28C
:10290000802DF7DB601CC4B2082CE4DB70BD000036
:1029100056783A00AC0300202B0000002D00000088
:10292000766F6C746167653A0000000000007A44BD
:10293000B80300206D56000047523A00C003002043
:10294000526F6C3A00000000BC0300202E00000013
:10295000000020416465670072656D6F745F6D6F84
:10296000746F3A001200002043656E5F5345543A7D
:1029700000000000A80300208A488B4948608B486B
:10298000486070478848006940F0800086490861C7
:1029900070478548C16801F0010008B10120704707
:1029A00001F0040008B10220F9E701F0100008B1BD
:1029B0000320F4E70020F2E770B5044600BFFFF7FC
:1029C000E8FF0546012D00D006E00120FDF71AFDC5
:1029D000601E84B2002CF2D100BF04B9FF25284646
:1029E00070BD70B50546002445F6FF70FFF7E4FFA3
:1029F0000446C4B96C48006940F002006A490861A5
:102A000008464561006940F04000086145F6FF70E6
:102A1000FFF7D2FF0446012C05D06348006920F07F
:102A2000020061490861204670BD70B505460E463A
:102A3000FF20FFF7C1FF044694B95B48006940F0EE
:102A40000100594908612E80FF20FFF7B5FF0446B9
:102A5000012C05D05448006920F00100524908615A
:102A6000204670BD0146088870472DE9F0410546B3
:102A70000E461746002407E036F814102846FFF7E4
:102A8000D4FFAD1C601C84B2BC42F5DBBDE8F08114
:102A900030B503460C461546002207E01846FFF7FE
:102AA000E1FF24F812009B1C501C82B2AA42F5DB05
:102AB00030BD2DE9F05F80468A461746B8F1006FB9
:102AC00002D33B48804501D3BDE8F09FFFF754FF98
:102AD000A8F1006B4FEADB25CBF34909C9F5806407
:102AE000A74200DC3C464EE04FF0006101EBC52000
:102AF0004A143049FFF7CCFF00260BE009EB060033
:102B00002C4931F810004FF6FF71884200D003E0E5
:102B1000701C86B2A642F1DB00BFA6421BDA4FF062
:102B2000006101EBC520FFF75CFF002608E03AF8E2
:102B3000160006EB09011F4A22F81100701C86B22C
:102B4000A642F4DB4FF0006101EBC5204A1419499D
:102B5000FFF78BFF04E0224651464046FFF785FF12
:102B6000A74200D110E06D1C4FF000090AEB440AA7
:102B700008EB4408381B87B2B7F5806F02DD4FF4CD
:102B8000806400E03C46AFE700BFFFF7FBFE00BFFC
:102B90009AE713B50446012201A92046FFF789FFF1
:102BA0001CBD00002301674500200240AB89EFCD2A
:102BB000000004088804002010B50446CC48844274
:102BC00008D10121042000F02DFB0021042000F099
:102BD00029FB46E0C748844208D10121082000F0C3
:102BE00021FB0021082000F01DFB3AE0C24884428E
:102BF00008D10121102000F015FB0021102000F069
:102C000011FB2EE0BD48844208D10121202000F0B4
:102C100009FB0021202000F005FB22E0B848844297
:102C200008D10121402000F0FDFA0021402000F0F1
:102C3000F9FA16E0B348844208D10121802000F05F
:102C4000F1FA0021802000F0EDFA0AE0AE4884425B
:102C500007D10121801500F0E5FA0021A01500F050
:102C6000E1FA10BD10B50121084600F0DBFA0021A1
:102C7000012000F0D7FA10BD2DE9F04102460025F1
:102C80000026002000230024002791F803C00CF048
:102C90000F0591F803C00CF0100CBCF1000F03D02D
:102CA00091F802C04CEA050591F800C0BCF1000F94
:102CB00031D0146800202BE04FF0010C0CFA00F327
:102CC000B1F800C00CEA03069E4220D183004FF009
:102CD0000F0C0CFA03F7BC4305FA03FC4CEA04049E
:102CE00091F803C0BCF1280F06D14FF0010C0CFA8B
:102CF00000FCC2F814C00AE091F803C0BCF1480F10
:102D000005D14FF0010C0CFA00FCC2F810C0401CB9
:102D10000828D1D31460B1F800C0BCF1FF0F34DD36
:102D2000546800202EE000F1080C4FF0010808FA6A
:102D30000CF3B1F800C00CEA03069E4221D18300D7
:102D40004FF00F0C0CFA03F7BC4305FA03FC4CEAF6
:102D5000040491F803C0BCF1280F05D100F1080C60
:102D600008FA0CF8C2F8148091F803C0BCF1480FBF
:102D700007D100F1080C4FF0010808FA0CF8C2F86E
:102D80001080401C0828CED35460BDE8F0814FF677
:102D9000FF710180022181700421C17070470246D9
:102DA000002093680B400BB1012000E00020704729
:102DB0000146886880B2704702460020D3680B4005
:102DC0000BB1012000E0002070470146C86880B2C6
:102DD000704701617047416170470AB1016100E0CD
:102DE00041617047C16070474FF480320A4382618D
:102DF0008161826182698269704702460020434B8B
:102E000018684FF68073184040EA021008433F4BA1
:102E1000186070473E49C8617047F0B50A46002304
:102E200000240021002500F00046B6F1004F02D139
:102E3000364EF16901E0354E7168C0F3034583B247
:102E400000F44016B6F5401F08D121F070612F4EF6
:102E5000766826F070662D4F7E6012E000F48016D2
:102E6000B6F5801F06D1032606FA05F4A14341F00A
:102E7000706106E0460D360103FA06F6B14341F0F3
:102E8000706122B1460D360103FA06F6314300F0B7
:102E90000046B6F1004F02D11C4EF16101E01B4E1D
:102EA0007160F0BD30B500228B071C0F0F2303FAB1
:102EB00004F2164B08338C1053F824309343134C10
:102EC00008348D1044F8253023468C1053F82430F4
:102ED0008C07240F00FA04F423430C4C08348D10A3
:102EE00044F8253030BD0A49DC31086070470000E5
:102EF00000080140000C0140001001400014014096
:102F000000180140001C0140002001400000014069
:102F100000002042DF48006840F00100DD49086001
:102F200008464068DC490840DA49486008460068BD
:102F3000DA490840D74908600846006820F4802034
:102F400008600846406820F4FE0048604FF41F0007
:102F500088607047CF49096821F48031CD4A1160FB
:102F60001146096821F480211160B0F5803F03D03B
:102F7000B0F5802F0ED106E0C649096841F48031D2
:102F8000C44A116007E0C349096841F4A021C14A5D
:102F9000116000E000BF00BF704710B5014600227D
:102FA000002300204A11012A02D1BA4C236806E00E
:102FB000022A02D1B74C236A01E0B64C636A01F0E1
:102FC0001F02012494401C400CB1012000E00020AD
:102FD00010BD38B5002000900024002500BF31202E
:102FE000FFF7DBFF05460098401C00900098B0F505
:102FF000A06F01D0002DF2D03120FFF7CEFF08B135
:10300000012400E00024204638BD01460020A14AEA
:10301000106820F0F80040EAC10010607047A04935
:1030200008607047024600209A4B586820F47C10D4
:1030300042EA01031843974B586070479849086665
:10304000704701460020934A506820F0030008436F
:10305000506070478F48406800F00C007047014690
:1030600000208C4A506820F0F00008435060704700
:1030700001460020874A506820F4E0600843506011
:10308000704701460020834A506820F4605040EAAF
:10309000C1005060704729B17E4A527A02437D4B8D
:1030A0005A7204E07B4A527A82437A4B5A727047D2
:1030B0007B49D8310860704701460020754A506846
:1030C00020F440400843506070470021714A20328C
:1030D0001170704A82F82010012802D004280AD109
:1030E00004E001216B4A2032117005E00521694A94
:1030F0002032117000E000BF00BF704769490860CE
:1031000070476449096A0143624A11627047654920
:1031100044390860704730B50021002200240023A4
:103120005C4D6D6805F00C0121B1042905D008291A
:1031300023D105E05C4D056022E05B4D05601FE09A
:10314000544D6D6805F47012524D6D6805F480346D
:10315000022505EB92421CB9544D554305600BE026
:103160004C4D6D6805F400351DB1504D554305605B
:1031700002E04D4D5543056002E04B4D056000BF38
:1031800000BF444D6D6805F0F0010909484D6B5CC6
:103190000568DD4045603F4D6D6805F4E061090A52
:1031A000434D6B5C4568DD4085603A4D6D6805F4C4
:1031B0006051C90A3E4D6B5C4568DD40C560354DC8
:1031C0006D6805F44041890B3A4D6B5CC568B5FBF1
:1031D000F3F5056130BD29B12E4A526902432D4BEA
:1031E0005A6104E02B4A526982432A4B5A61704764
:1031F00029B1284A92690243264B9A6104E0254A84
:1032000092698243234B9A61704729B1214AD2695E
:103210000243204BDA6104E01E4AD26982431D4B0F
:10322000DA61704729B11B4AD2680243194BDA6050
:1032300004E0184AD2688243164BDA60704729B11D
:10324000144A12690243134B1A6104E0114A1269CD
:103250008243104B1A617047124940390860704729
:103260000F49C86470470B49C87170470948406AE4
:1032700040F0807007494862704701460020054AC7
:1032800092680A400AB1012000E00020704701491D
:1032900088727047001002400000FFF8FFFFF6FE42
:1032A000000042428004424200127A0000093D00C0
:1032B000E4030020F4030020704770477047704714
:1032C0007047000000487047880C00207546FFF7E3
:1032D000F9FFAE4605006946534620F007008546D3
:1032E00018B020B5FCF782FFBDE820404FF0000683
:1032F0004FF000074FF000084FF0000B21F00701DE
:10330000AC46ACE8C009ACE8C009ACE8C009ACE820
:10331000C0098D46704710B50446AFF300802046C3
:10332000BDE81040FCF749BF490050EAC12018BF72
:1033300004204A0D18BF40F0010040F2FF72B2EBCA
:10334000515F08BF40F00200012808BF0520704708
:103350002DE9F0414F1E00EBC7010446D1E9000101
:1033600015461E4637F006020DD02A46334600F0B9
:1033700073FC7F1E04EBC703D3E9002300F04CFA73
:1033800037F00602F1D1022F25D0042F13D0062FDB
:1033900018BFBDE8F0812A46334600F05DFCD4E951
:1033A0000A2300F039FA2A46334600F055FCD4E9E6
:1033B000082300F031FA2A46334600F04DFCD4E9E8
:1033C000062300F029FA2A46334600F045FCD4E9EA
:1033D000042300F021FA2A46334600F03DFCD4E9EC
:1033E000022300F019FA2A46334600F035FCD4E9EE
:1033F0000023BDE8F04100F00FBA012201F0C7B987
:1034000000F00ABA024A0020110701F0C0B900001A
:1034100001FDFFFF2DE9F84F04460D4621F0004065
:1034200000917349814211DC7249884201DC06D166
:103430002CB120462946BDE8F84FFFF7DEBF6E48A5
:10344000002DCCBF6D496E49BDE8F88F6D498142B2
:1034500011DD6D498142D8BF4FF0FF366DDD20464A
:103460002946FFF761FF042808BFFFF7CBFF20467E
:103470002946BDE8F88F6549654F25F00045814232
:1034800033DD6449814219DD002632464FF0804326
:103490002046294600F0C0F980468A46012220468F
:1034A000294601F074F900223B4600F0DFFC424659
:1034B000534600F061FA04460D463EE00126002224
:1034C000BA463B462046294600F0A6F980460F46FC
:1034D000002253462046294600F0C8FC42463B469F
:1034E00000F04AFA04460D4627E04B4981421BDDB5
:1034F000DFF828A10226002253462046294600F084
:10350000ABFB00223B4600F087F980460F460022C5
:1035100053462046294600F0A9FC42463B4600F0AF
:103520002BFA04460D4608E0032622462B460020CF
:103530003B4900F021FA04460D4622462B46104630
:10354000194600F089FB8B46824602460B4600F086
:1035500083FB07460246334888460B4606217844DB
:10356000FFF7F6FE52465B4600F076FB82462E4899
:103570008B463A46434605217844FFF7E9FE3A4632
:10358000434600F069FB02460B46002E5046594662
:103590000CDA00F041F922462B4600F05DFB01B049
:1035A00022462B46BDE8F04F00F054BC00F034F941
:1035B00022462B4600F050FB1C4A7A4402EBC6031D
:1035C000D3E9002300F052FC22462B4600F04EFCCB
:1035D000174A7A4402EBC603D3E9002300F03AFC11
:1035E000009A002AB8BF81F00041BDE8F88F0000C2
:1035F000000010440000F07F182D4454FB21F93FD7
:10360000FB21F9BF0000DC3F0000203E0000F33F3B
:103610000000F03F0000E63F008003400000F83F5C
:103620000000F0BF3E1B0000FC1A00009A1A0000C8
:10363000621A00002DE9F04D9446CCF1000423F00D
:1036400000464CEA0404524F46EAD4749A4688462F
:1036500021F00042BC4206D8454240EA050442EA55
:10366000D474BC4204D9BDE8F04D6246FFF7C8BE31
:10367000AAF14055A5F17F6555EA0C040BD0022450
:1036800004EAAA74434DDFF810E144EAD87452EA20
:10369000000B04D00CE0BDE8F04DFFF7BBBE002CE2
:1036A00014BF012CBDE8F08D022C30D0032C32D099
:1036B00056EA0C0B0AD0BE4220D1BA4209D126F0FC
:1036C000804622F080423346114617E000291ADB7B
:1036D00025E0DFF8C8B0FB44002C04BFDBE90001A3
:1036E000BDE8F08D012C02BFDBE9000181F0004153
:1036F000BDE8F08D022C0AD0032C0CD0BA4212D1B6
:10370000B8F1000F0BDA23482549BDE8F08D2846B3
:103710002449BDE8F08D28467146BDE8F08D1D486E
:103720002149BDE8F08D921B12153C2AC4BF1948EF
:103730001D490EDCBAF1000FBEBF12F13C0F002094
:10374000014606DB624600F017F921F00041FFF761
:1037500061FE002C08BFBDE8F08D012C04BF81F094
:103760000041BDE8F08D114A114B022C07D000F04A
:103770007DFB2A46BDE8F04D0A4B00F077BB00F018
:1037800075FB2A46BDE8F04D064B00F063BB000018
:103790000000F07F182D4454FB2109C0F6190000E9
:1037A000FB21F9BFFB210940FB21F93F075C1433E2
:1037B00026A6A13C21F00042A2F16052B2F5801F82
:1037C00001F0004328BFD2F17F6C0BD95FEA001CE7
:1037D00043EAC20242EB507018BF704728BF20F086
:1037E00001007047B2F5801FBCBF184670474FEA12
:1037F000410C1CF5001F02D2084600F0E0BE70B577
:1038000000F0D4FA00000089FFF7F6BF4FF0004047
:10381000A0F580007047000010B591EA030F48BF83
:1038200083F0004300F12A83841A71EB030C05D264
:10383000121943EB0C03001B61EB0C01DFF824E1D0
:103840004FEA1154A4EB135C1EEA430F18BF9EEA23
:10385000445F73D023EA0E03DCF1200E21EA045109
:1038600043F4801332D322FA0CFE10EB0E0023FA3D
:103870000CFE41EB0E01CCF1200E03FA0EFE10EB14
:103880000E0051F10001B1F5801FCCF1200E32D2B3
:1038900001EB045112FA0EF2BDE8104058BF704718
:1038A000401C38BF5FEA420218BF7047002814BFAF
:1038B00020F0010041F100014FEA410313F5001F20
:1038C00038BF7047A1F1C04100F0BEBA012A43EBF6
:1038D0000302ACF1200CDCF11F0E32BF4FF0000EE2
:1038E00023FA0CF310EB030041EB0451B4EB115F2E
:1038F000D0D0A1EB045101F5801149085FEA3000F6
:1039000001EB04510ED350F1000038BF12FA0EFE45
:1039100008D1BDE81040C9E7401C38BF5FEA420249
:10392000CAD1C3E7BDE810404FEA410313F5001FB9
:1039300038BF7047A1F1C04100F086BA9EEA445FEB
:1039400008D011EA5E0FBDE8104004BF01F000414D
:1039500000207047BDE8104070B500F027FA00BFA6
:1039600064FBBE3E0000E0FF02494FF0000000F0A3
:10397000DCBE00BF0000F87F2DE9C04130B4DFF8A5
:10398000A0C23CEA111418BF3CEA131400F0EC800A
:1039900081EA03051CEA111444EAD57418BF1CEA35
:1039A000131500F0C780A4EB05044FF0004545EA6D
:1039B000C12145EAC32341EA505143EA525304F17D
:1039C0007F74994204F500344FEAC0204FEAC222C6
:1039D00008BF904200F09C804FEA13650FF240163A
:1039E000765D4FEA134506FB05F7C7F1807706FBC6
:1039F00007F74FEAD737A7FB03687642C8F5803848
:103A0000A7FB06CE38BFA8F1010807FB08E64FF078
:103A1000000EA6FB028CE6FB03CEDCF1000CCEF11F
:103A2000004E38BFAEF1010EA6FB0C584FF0000758
:103A30004FF00005E6FB0E87A1FB08C6A0FB07CEF2
:103A400016EB0E0645F10005E1FB076515F1E04EAA
:103A50007EBFA4F580345FEA46066D4116F180070B
:103A600045F100054FEA17274FEA066647EA056762
:103A7000A6F1DE46B6F1805F4FEA15251FD938461C
:103A800024F0010C05EBC471BCF1FE6F01EB0C11CD
:103A900002D8F0BCBDE8008124425CBF01F5801E65
:103AA0009EEAC47F02D4F0BCBDE80081244238D431
:103AB000F0BCA1F1C041BDE8004100F0C5B94FEA3A
:103AC000D22242EA43524FEAD323A7FB02864FEAAF
:103AD000D02040EA415007FB03661EEA0E0F4FEA72
:103AE000D12105FB026658BFA6EB0056B6EB005687
:103AF0004FEA520E4EEAC37E18EB0E0E56EB530EF3
:103B0000BDD518EB02085E417F1C55F10005B6E7F4
:103B10004FF480154FF000074FF000064FF00008FB
:103B2000ADE7F0BC4FF0000001F1C04101F00041F1
:103B3000BDE8008111EA0C1F0CEA131500D00CE05F
:103B400013EA0C1F00F025804FF00000F0BC81EA62
:103B5000030101F00041BDE80081F0BCBDE8004177
:103B600081EA030100F070B9F0BCBDE8004170B516
:103B700000F01CF9097EFC3E00F007B881EA030161
:103B80004FF0000001F00041704781EA030100F0AE
:103B90005BB9F0BCBDE800414FF00000214970471F
:103BA000FFFDFBF9F7F5F4F2F0EEEDEBE9E8E6E402
:103BB000E3E1E0DEDDDBDAD8D7D5D4D3D1D0CFCD89
:103BC000CCCBCAC8C7C6C5C4C2C1C0BFBEBDBCBBC2
:103BD000BAB9B8B7B6B5B4B3B2B1B0AFAEADACABBD
:103BE000AAA9A8A8A7A6A5A4A3A3A2A1A09F9F9E97
:103BF0009D9C9C9B9A999998979796959594939349
:103C0000929191908F8F8E8E8D8C8C8B8B8A8989DF
:103C10008888878786858584848383828281818062
:103C20000000FF070000F87F10F0004248BF40424C
:103C3000B0FA80F310FA03F10AD0C3F11D0303F5C3
:103C400080634FEA415002EB035202EBD1217047EF
:103C50004FF0000070470000DFF848C170B51CEA63
:103C6000111E1EBF1CEA13159EEA0C0F95EA0C0FDD
:103C700000F06F8081EA030423EA4C134EEAD47EFD
:103C800021EA4C1141F4801143F48013AE44A1FBAE
:103C9000024CA0FB0365AEF17F7E361955EB0C0597
:103CA000A1FB034C4CF10003A0FB021C16EB0C061D
:103CB000654153F10003094218BF46F0010613F4B1
:103CC000007F0BD14FEA03314FEA0530340341EA5C
:103CD000155140EA16506FF003020AE04FEAC32183
:103CE0004FEAC520F40241EA555140EA56506FF0C0
:103CF000020202EB2E4201EB025585EACE710AD098
:103D00005FEA440C18BF24F0004450F1000041F178
:103D1000000120EAD47040F2FE7C624500D270BD02
:103D2000A84214BF4FF080444FF04044002E08BF1B
:103D30000024BEF1806FA8BFA1F1C041BDE8704072
:103D400080F282804FF0000001F1C04101F000419B
:103D500070479EEA0C0F0CEA131518BF95EA0C0F7A
:103D600006D04FF0000081EA030E0EF0004170BD56
:103D700000F01CF88900013E00F007B800F009B817
:103D80004FEA430C5FEA5C5C08D081EA030100F073
:103D90005BB84FEA410C5FEA5C5CF6D14FF0000083
:103DA000014970470000FF070000F87F0EF1020E86
:103DB0002EF0030E5EF8046B364205D4012A43EB65
:103DC000030515F5001F12D8012841EB010C1CF565
:103DD000001F0CD80ED14FEAD17C15F5001F0CEB5B
:103DE0004C0C0CF1020C08BF4CEBD37C04E04FF000
:103DF000080C01E04FEAD37C0CEB4C0526FA05F6E3
:103E000006F00706B6F1040C06D20EEB860CBDE8F0
:103E100070404CF0010C6047DFE80CF0090B020227
:103E20004FF000414FF00000A1F5002170BD194690
:103E30001046012851EB010418BFD4F5001484BFCB
:103E4000002001F0004170BD0808A0F500114FEA04
:103E50003101704791EA030F10B581F000413FF541
:103E6000E3AC83F0004300F009B8000010B591EA1C
:103E7000030F48BF83F000433FF5D6AC841A71EBC3
:103E8000030C07D212198CF0004C43EB0C03001BFF
:103E900061EB0C01DFF8A4E14FEA1154A4EB135CD1
:103EA0001EEA430F18BF9EEA445F00F0B08023EA89
:103EB0006E03524221EA0451C3EB6E0338BF5B1E0E
:103EC000DCF1200E25D322FA0CFE10EB0E0043FA93
:103ED0000CFE41EB0E01CCF1200E03FA0EFE10EBAE
:103EE0000E0051F10001CCF1200E29D412FA0EF28D
:103EF00001EB0451BDE8104058BF7047401C1CBF87
:103F0000B2F1004F704700280CBF491C20F001009F
:103F1000704712EB020E43EB030218BF4FF0010E85
:103F20004EEA4202ACF1200CDCF11E0E54D943FAE9
:103F30000CFE10EB0E0051F1FF31CCF11E0ED5D569
:103F40000EF1010E12FA0EFE404141EB010101EBB0
:103F5000445C5FEA5C5C10D910EBDE7001EB04514D
:103F600038BFBEF1004FBDE8104018BF70470028B1
:103F70000CBF491C20F00100704730D24FEAD42C0E
:103F800011F5001124F400641BD0B1FA81F20B3A50
:103F9000A41AA41ED2F12003914030FA03F319436E
:103FA000904001EBCC71002C01EB0451BDE81040B6
:103FB000A8BF704701F1C0414FF0000001F000417F
:103FC0007047B0FA80F310FA03F100D110BDE41A83
:103FD000173C4805C90AE4E701EB045110BD49103C
:103FE00001EB0451BDE810404FEA300002E04FF011
:103FF000000170474A0008BF0042F8D0B2F5001F28
:1040000028BF704701F000414FF0000070479EEA62
:10401000445F07D011EA5E0FBDE8104004BF0021E5
:1040200000207047BDE8104070B5FFF7BFFE00BF2D
:1040300040DFF63E83F00041104670470000E0FF8D
:1040400043004FEAD30C4FEA3C0C43401FBF4007EC
:104050000CF1605113F0FE4F70471CF0006F03D15C
:1040600000200CF0004170470CF0004343EA507010
:1040700010B540EACC0000F05CFA00BF00000092EE
:104080004FEA0001FFF7E0BE4FF000414FF00000A3
:10409000A1F500217047000090EA010F48BF81F0B0
:1040A000004100F1D482421A3CBF801A89184FEABD
:1040B000D0524FF07F4C1CEA410FA2EBD15318BFF6
:1040C0009CEA026F00F03B804FF0004C4CEA00206D
:1040D0004CEA012121FA03FC10EB0C0C1ED202F178
:1040E000FF325FEA1C2040EBC25038BF70471CF023
:1040F0007F0F4FEA400C18BFBCF17F4F38BF7047AD
:10410000C3F12003994008BF20F00100BCF17F4FAC
:1041100038BF7047A0F1C04000F051BA4FEA3C00F0
:10412000000A40EBC25028BF1CF0FF0F4FEA400CC2
:10413000E6D018BFBCF17F4F38BF7047EAE79CEA72
:10414000026F05D010EA5C0F08BF00F00040704716
:1041500010B500F0EEF900BF64FBBE3E401058BF42
:10416000C0F14040491058BFC1F140418142EFF3D6
:10417000008070474FF47F0C1CEAD0121EBF1CEA6F
:10418000D11392EA0C0F93EA0C0F00F0858090EAAD
:10419000010F48BF42F4807240F4000C41F400006B
:1041A0002CF07F4120F07F4000B58142A2EB03025A
:1041B0000FF2081CACEB504EC0F100009EF800E07E
:1041C0004FEA4E0E00FB0EFC38BF49004FEA2C1C94
:1041D00002F5FA020CFB0EF34FEACE1E4FEA112C49
:1041E0004FEAC1210EEB635E42EB22420EFB0CFC58
:1041F0004FEA1C5300FB03114FEA112C4FEA013127
:104200000EFB0CFC4FEADC4C00FB0C11C14228BF3A
:1042100009184CEB03335DF804EB10EB410143EB61
:10422000C250B2F57C0F38BF704729D512F0F00F9D
:104230001CBF00F1C04000F0004070470081828345
:104240008485868788898B8C8D8E8F9192939596A5
:1042500097999A9C9D9FA0A2A3A5A7A8AAACAEB02F
:10426000B2B3B5B7B9BCBEC0C2C5C7C9CCCED1D434
:10427000D7D9DCDFE2E6E9ECF0F3F7FAFE00000064
:104280004FEA400C0CF1807CBCF17E4F28BF704798
:10429000B0F1C04000F093B990EA010F0CEAD113DD
:1042A00048BF42F48072624538BF634507D213F4B9
:1042B0007F0F16D080EA010000F00040704710B573
:1042C00000F037F9097EFC3E00F005B880EA0100F5
:1042D00000F00040704780EA010000F0004000F06C
:1042E0006EB912F47F0F04BF0248704780EA0100E4
:1042F00000F065B90000C07F41000B0ED3F19E02B3
:1043000008D950F400034FEA032323FA02F048BF10
:104310004042704710B500F00CF900BF499224806C
:10432000002070476FF0004282EA200070470000D2
:10433000C10DD1F19E0206DB4FEA002343F000439A
:1043400023FA02F07047004207D54FEA4001B1F16D
:10435000FE4F02D24FF00000704710B500F0E9F8B0
:1043600049922480002070476FEA200070470000C7
:1043700010F0004148BF4042B0FA80F310FA03F257
:10438000C3F19D030BD051EAC35101EB1220530638
:1043900038BF704700F1010008BF20F001007047EE
:1043A000B0FA80F310FA03F2C3F19D030AD0D905E5
:1043B00001EB1220530638BF704700F1010008BF1F
:1043C00020F001007047000050EA010C00F113805A
:1043D0001CF5000F58BFBCF5000F01D48842704790
:1043E00007D710F5000F58BF11F5000F15D48842FC
:1043F0007047894270471CF5000F04D5BCF5000FCB
:10440000F7D5814270474FF0807C1CEB400F38BFDE
:104410001CEB410F01D28142704710B500F089F8C2
:10442000922449004FF000504FF08051FFF796BEA4
:104430004FF47F0C1CEAD0121EBF1CEAD11392EA83
:104440000C0F93EA0C0F00F0478090EA010F48BF71
:1044500042F480724FF0004C4CEA00204CEA0121FB
:1044600002EB0302A0FB0113A2F50002002918BF12
:1044700043F001035B0028BF4FEA330342EB2242C3
:104480005FEA132C4CEBC2502EBFBCEB436FB2F56E
:104490007C0F70474FEA036CBCF1004F08BF20F05F
:1044A0000100B2F57C0F38BF70470BD582F0FF02D8
:1044B00012F5803FC8BF704700F1C040D8BF00F080
:1044C0000040704700F5000C5FEA4C0C48BF704795
:1044D000B0F1C04000F073B890EA010F0CEAD113BC
:1044E00048BF42F48072624538BF634504D280EA17
:1044F000010000F00040704710B500F01AF800BF4E
:104500008900013E00F007B800F009B85FEA410CED
:104510005FEA1C6C08D080EA010000F050B85FEA46
:10452000400C5FEA1C6CF6D14FF00040A0F5800013
:1045300070470EF1020E2EF0030E5EF8044B24427B
:1045400004D44FEA4102B2F17F4F11D84FEA400341
:10455000B3F17F4F0CD80ED14FEAD07CB2F17F4F30
:104560000CEB4C0C0CF1020C08BF4CEBD17C04E0C2
:104570004FF0080C01E04FEAD17C0CEB4C0324FA1D
:1045800003F404F00704B4F1040C06D20EEB840C1F
:10459000BDE810404CF0010C6047DFE80CF0070864
:1045A00002024FF00040A0F5800010BD0846420016
:1045B00018BFD2F1807288BF00F0004010BDFF210B
:1045C00041EAD050C005704751EA000C00F1138059
:1045D0001CF5000F58BFBCF5000F01D48142704795
:1045E00007D711F5000F58BF10F5000F15D4814201
:1045F0007047894270471CF5000F04D5BCF5000FC9
:10460000F7D5884270474FF0807C1CEB410F38BFD4
:104610001CEB400F01D28842704780EA010081EA1A
:10462000000180EA0100FFF7F8BE80F0004090EA48
:10463000010F7FF538AD81F0004100F008B80000AF
:1046400090EA010F48BF81F000413FF52CAD421ABE
:1046500004D882F00042A0EB020011444FEAD0528D
:104660004FF07F4C1CEA410FA2EBD15318BF9CEADC
:10467000026F4AD04FF0004C4CEA00204CEA012176
:1046800021FA03FCB0EB0C0C0FD412F0FE0F36D065
:104690005FEA4C001DD5001240EBC25038BF704796
:1046A0001CF03F0F18BF70470BE0A2F101025FEA58
:1046B0001C2040EBC25038BF70471CF07F0F18BF62
:1046C0007047C3F12003994014BF401E20F0010041
:1046D000704780084FEA122308BF7047B0FA80FC89
:1046E000A2EB0C02CCF1280C60FA0CF093EA122F2A
:1046F00004BF00EBC25070474FEAC3707047130A03
:104700005FEADC1008BF7047F6E79CEA026F04D04E
:1047100010EA5C0F08BF0020704710B5FFF709FFD3
:1047200040DFF63E81F0004070470CF00F03092B8C
:1047300008BF082000F059800A2B0BD0082B18BFA7
:10474000704708BF1CF0400F0AD04FF000004FF038
:10475000000170471CF0400F18BF4FF00040704739
:104760001CF0100F08D020F0704300F07F4242EAA6
:10477000D3014FEA4370704700F0604021F07F4260
:1047800042EA000201F07F4040EA727070474FF049
:10479000FF0C4CF4E06C1CEA11531CBF9CEA030CA8
:1047A0009445C2BFDA4201EB02517047002B0DD095
:1047B000BCF1000F0FD0002A01F00041A4BF41F06E
:1047C000E04141F07F614FF00000704701F000418F
:1047D0004FF00000704750EA01334FF09B0C18BFB8
:1047E0004CF0806C7FF4C0A870471CF4801F11D07F
:1047F0001CF4E02F03D06FEACC31490070474FF032
:104800004050EFF3008222F0704242EA000282F34D
:10481000008870474FF00000704700000000000063
:104820000000002F000000000700070000147F14A4
:104830007F1400242A7F2A120062640813230036A2
:104840004955225000000503000000001C224100D1
:10485000000041221C000014083E08140008083E15
:104860000808000000A06000000808080808000010
:1048700060600000002010080402003E5149453EDF
:104880000000427F400000426151494600214145FD
:104890004B31001814127F10002745454539003C64
:1048A0004A49493000017109050300364949493632
:1048B00000064949291E0000363600000000563621
:1048C0000000000814224100001414141414000005
:1048D0004122140800020151090600324959513E93
:1048E000007C1211127C007F49494936003E41414B
:1048F0004122007F4141221C007F49494941007FFC
:1049000009090901003E4149497A007F0808087FEA
:104910000000417F4100002040413F01007F08141A
:104920002241007F40404040007F020C027F007F18
:104930000408107F003E4141413E007F09090906FD
:10494000003E4151215E007F091929460046494930
:1049500049310001017F0101003F4040403F001FFD
:104960002040201F003F4038403F0063140814637C
:1049700000070870080700615149454300007F4166
:10498000410000552A552A55000041417F0000048E
:1049900002010204004040404040000001020400C7
:1049A000002054545478007F48444438003844442C
:1049B000442000384444487F0038545454180008B8
:1049C0007E0901020018A4A4A47C007F08040478D6
:1049D0000000447D4000004080847D00007F10285E
:1049E00044000000417F4000007C04180478007CF3
:1049F0000804047800384444443800FC2424241873
:104A00000018242418FC007C0804040800485454AE
:104A1000542000043F444020003C4040207C001CC7
:104A20002040201C003C4030403C004428102844DA
:104A3000001CA0A0A07C004464544C441414141422
:104A4000141400000000000000000000000000003E
:104A50000000000000F800000000000000333000FB
:104A6000000000100C06100C060000000000000002
:104A7000000040C07840C0784000043F04043F0478
:104A80000400007088FC08300000001820FF211E80
:104A90000000F008F000E018000000211C031E21B7
:104AA0001E0000F00888700000001E212324192732
:104AB000211010160E000000000000000000000091
:104AC0000000000000E018040200000000071820A9
:104AD000400000020418E000000000402018070019
:104AE0000000404080F0804040000202010F0102BF
:104AF0000200000000F0000000000101011F0101A0
:104B00000100000000000000000080B07000000004
:104B10000000000000000000000000010101010190
:104B20000101000000000000000000303000000023
:104B300000000000000080601804006018060100FA
:104B4000000000E010080810E000000F1020201006
:104B50000F00001010F8000000000020203F20206F
:104B60000000007008080888700000302824222106
:104B700030000030088888483000001820202011BC
:104B80000E000000C02010F8000000070424243F9D
:104B9000240000F808888808080000192120201146
:104BA0000E0000E0108888180000000F112020116E
:104BB0000E0000380808C83808000000003F000058
:104BC00000000070880808887000001C2221212243
:104BD0001C0000E010080810E00000003122221143
:104BE0000F00000000C0C0000000000000303000D6
:104BF0000000000000800000000000008060000055
:104C0000000000008040201008000001020408108D
:104C1000200040404040404040000404040404049C
:104C2000040000081020408000000020100804024A
:104C30000100007048080808F0000000003036014C
:104C40000000C030C828E810E0000718272423140B
:104C50000B000000C038E0000000203C23020227C7
:104C6000382008F8888888700000203F2020201114
:104C70000E00C0300808080838000718202020104F
:104C8000080008F808080810E000203F2020201045
:104C90000F0008F88888E8081000203F2020232013
:104CA000180008F88888E8081000203F200003005A
:104CB0000000C03008080838000007182020221E15
:104CC000020008F808000008F808203F210101212F
:104CD0003F20000808F8080800000020203F20209E
:104CE000000000000808F8080800C08080807F00ED
:104CF000000008F888C028180800203F2001263846
:104D0000200008F8080000000000203F202020209C
:104D1000300008F8F800F8F80800203F003F003F96
:104D2000200008F830C00008F808203F20000718CD
:104D30003F00E01008080810E0000F1020202010AD
:104D40000F0008F808080808F000203F21010101C1
:104D50000000E01008080810E0000F182424385064
:104D60004F0008F8888888887000203F2000030CD6
:104D700030200070880808083800003820212122DF
:104D80001C00180808F8080818000000203F200040
:104D9000000008F808000008F808001F2020202064
:104DA0001F000878880000C83808000007380E0186
:104DB0000000F80800F80008F800033C0700073C72
:104DC0000300081868808068180820302C03032C22
:104DD00030200838C800C83808000000203F2000F4
:104DE000000010080808C8380800203826212020B4
:104DF0001800000000FE020202000000007F404098
:104E00004000000C30C00000000000000001063827
:104E1000C00000020202FE000000004040407F008F
:104E20000000000004020202040000000000000074
:104E30000000000000000000000080808080808072
:104E4000808000020204000000000000000000005A
:104E500000000000808080800000001924222222AF
:104E60003F2008F8008080000000003F1120201142
:104E70000E000000008080800000000E1120202025
:104E80001100000000808088F800000E1120201022
:104E90003F200000808080800000001F222222220C
:104EA0001300008080F0888888180020203F202090
:104EB00000000000808080808000006B94949493B8
:104EC000600008F8008080800000203F2100002062
:104ED0003F2000809898000000000020203F202004
:104EE0000000000000809898000000C08080807F53
:104EF000000008F8000080808000203F24022D3050
:104F00002000000808F8000000000020203F2020BA
:104F100000008080808080808000203F20003F2033
:104F2000003F8080008080800000203F2100002022
:104F30003F200000808080800000001F2020202073
:104F40001F00808000808000000080FFA1202011D1
:104F50000E000000008080808000000E112020A044
:104F6000FF80808080008080800020203F21200002
:104F700001000000808080808000003324242424ED
:104F80001900008080E0808000000000001F2020C9
:104F900000008080000000808000001F2020201082
:104FA0003F20808080000080808000010E30080655
:104FB000010080800080008080800F300C030C3066
:104FC0000F0000808000808080000020312E0E3194
:104FD0002000808080000080808080818E70180694
:104FE000010000808080808080000021302C222100
:104FF000300000000000807C020200000000003F42
:10500000404000000000FF00000000000000FF0022
:1050100000000002027C800000000040403F0000D1
:10502000000000060101020204040000000000006C
:1050300000000000000000004FBB610567ACDD3FD1
:10504000182D4454FB21E93F9BF681D20B73EF3FAF
:10505000182D4454FB21F93FE2652F227F2B7A3C27
:10506000075C143326A6813CBDCBF07A8807703CE0
:10507000075C143326A6913CC4EB98999999C9BF53
:10508000711623FEC671BCBF6D9A74AFF2B0B3BF88
:105090009AFDDE522DDEADBF2F6C6A2C44B4A2BF48
:1050A0000D5555555555D53FFF8300922449C23FB4
:1050B0006E204CC5CD45B73F513DD0A0660DB13FE8
:1050C000EB0D76244B7BA93F11DA22E33AAD903FFA
:1050D0000000000000000000F85000080000002060
:1050E000F8030000280100087C520008F8030020A3
:1050F000F00E000084010008011E1BF010012AFFC1
:10510000050215F01B0F04012AFF0502130F1809F1
:105110004040405F55555575041A5F0C0911210830
:105120000C11200F094989790909090F201F112F36
:10513000FE02424ACA4A0304134202FE000E14FF52
:1051400040504C4340404F50505C40FF1BF888019A
:105150002AFF050215F81B1F08012A7F200B109F4C
:1051600080E23B808201000916E2A2928A86828058
:1051700080041840807F172424A4FEA3221B22CC85
:10518000AA011415080601FF2B0104010511FF02F5
:1051900002025808101010FF109008C302110808EE
:1051A0000F100444827F01808040432C10284681E8
:1051B000A018094040484848C8784F060515484897
:1051C00040400009150312122222528A063C106048
:1051D00080BA19040B11C030FB1E404043407F06CB
:1051E0001C7F424106094FC02941080B1110D030E5
:1051F000FF30D0121C10101F3D080402019E0D113B
:1052000001020408211116FE222222FE0712FE824C
:105210008292A29E100880601F0242827F0F11FFBF
:10522000402F102C438011000B1490884C57A4245D
:1052300054548C84180801018042221A07441D42EC
:105240003E01018AF9E1000D14E4242CB425262442
:10525000B42C24E404180AFF02011E1212121E418B
:10526000860116927D033CB4422D01020304040022
:0C527000090006070809020406080000F7
:04000005080000ED02
:00000001FF
